:020000040800F2
:1000000000000220254B0008594A00085B4A0008FE
:100010005D4A00085F4A0008614A000800000000CD
:10002000000000000000000000000000634A00081B
:10003000654A000800000000674A0008694A000895
:10004000754B0008754B0008754B0008754B000890
:10005000754B0008754B0008754B0008754B000880
:10006000754B0008754B0008754B0008754B000870
:10007000754B0008754B0008754B0008754B000860
:10008000754B0008754B0008794A00080000000015
:10009000000000000000000000000000754B000898
:1000A000754B0008854A0008754B0008754B000821
:1000B000754B0008754B0008754B0008914A000805
:1000C0009D4A0008A94A0008B54A0008754B000877
:1000D000754B0008754B0008C14A0008000000007D
:1000E000754B0008754B0008754B000800000000B8
:1000F000000000000000000000000000754B000838
:1001000000000000754B0008754B0008754B000897
:1001100000000000000000000000000000000000DF
:10012000754B0008754B0008754B0008754B0008AF
:10013000754B0008000000000000000000000000F7
:10014000000000000000000000000000754B0008E7
:10015000754B0008754B0008754B0008754B00087F
:10016000CD4A0008754B00080000000000000000A8
:10017000000000000000000000000000000000007F
:1001800000000000754B00080000000000000000A7
:08019000754B0008754B0008D7
:1001980010B5054C237833B9044B13B10448AFF3B9
:1001A80000800123237010BDB8010020000000006A
:1001B800D04B000808B5034B1BB103490348AFF304
:1001C800008008BD00000000BC010020D04B0008E2
:1001D80070B54FF0FF0C4CF4E06C1CEA11541DBFD5
:1001E8001CEA135594EA0C0F95EA0C0F00F0DEF8A0
:1001F8002C4481EA030621EA4C5123EA4C5350EA85
:10020800013518BF52EA033541F4801143F48013D5
:1002180038D0A0FB02CE4FF00005E1FB02E506F066
:100228000042E0FB03E54FF00006E1FB03569CF0BB
:10023800000F18BF4EF0010EA4F1FF04B6F5007FC1
:1002480064F5407404D25FEA4E0E6D4146EB060633
:1002580042EAC62141EA55514FEAC52040EA5E50BC
:100268004FEACE2EB4F1FD0C88BFBCF5E06F1ED866
:10027800BEF1004F08BF5FEA500E50F1000041EB9D
:10028800045170BD06F0004646EA010140EA02004A
:1002980081EA0301B4EB5C04C2BFD4EB0C0541EA6C
:1002A800045170BD41F480114FF0000E013C00F381
:1002B800AB8014F1360FDEBF002001F0004170BDA5
:1002C800C4F10004203C35DA0C341BDC04F11404BE
:1002D800C4F1200500FA05F320FA04F001FA05F24A
:1002E80040EA020001F0004221F0004110EBD37017
:1002F80021FA04F642EB06015EEA430E08BF20EA43
:10030800D37070BDC4F10C04C4F1200500FA04F3E5
:1003180020FA05F001FA04F240EA020001F0004177
:1003280010EBD37041F100015EEA430E08BF20EAEA
:10033800D37070BDC4F1200500FA05F24EEA020E32
:1003480020FA04F301FA05F243EA020321FA04F061
:1003580001F0004121FA04F220EA020000EBD37018
:100368005EEA430E08BF20EAD37070BD94F0000F18
:100378000FD101F00046400041EB010111F4801F4C
:1003880008BF013CF7D041EA060195F0000F18BFFD
:10039800704703F00046520043EB030313F4801F39
:1003A80008BF013DF7D043EA0603704794EA0C0FF3
:1003B8000CEA135518BF95EA0C0F0CD050EA410609
:1003C80018BF52EA4306D1D181EA030101F0004186
:1003D8004FF0000070BD50EA410606BF10461946AE
:1003E80052EA430619D094EA0C0F02D150EA0136BA
:1003F80013D195EA0C0F05D152EA03361CBF1046FB
:1004080019460AD181EA030101F0004141F0FE4199
:1004180041F470014FF0000070BD41F0FE4141F41D
:10042800780170BD81F0004102E000BF83F0004315
:1004380030B54FEA41044FEA430594EA050F08BF77
:1004480090EA020F1FBF54EA000C55EA020C7FEA3B
:10045800645C7FEA655C00F0E2804FEA5454D4EBB8
:100468005555B8BF6D420CDD2C4480EA020281EA82
:10047800030382EA000083EA010180EA020281EABA
:100488000303362D88BF30BD11F0004F4FEA01310C
:100498004FF4801C4CEA113102D0404261EB41011B
:1004A80013F0004F4FEA03334CEA133302D05242A1
:1004B80063EB430394EA050F00F0A780A4F101045D
:1004C800D5F1200E0DDB02FA0EFC22FA05F2801897
:1004D80041F1000103FA0EF2801843FA05F359417D
:1004E8000EE0A5F120050EF1200E012A03FA0EFCFC
:1004F80028BF4CF0020C43FA05F3C01851EBE37126
:1005080001F0004507D54FF0000EDCF1000C7EEB42
:1005180000006EEB0101B1F5801F1BD3B1F5001F80
:100528000CD349085FEA30004FEA3C0C04F101049F
:100538004FEA445212F5800F80F09A80BCF1004FC8
:1005480008BF5FEA500C50F1000041EB045141EA4A
:10055800050130BD5FEA4C0C404141EB0101013C13
:1005680028BFB1F5801FE9D291F0000F04BF014602
:100578000020B1FA81F308BF2033A3F10B03B3F1D4
:1005880020020CDA0C3208DD02F1140CC2F10C0264
:1005980001FA0CF021FA02F10CE002F11402D8BFC2
:1005A800C2F1200C01FA02F120FA0CFCDCBF41EA8E
:1005B8000C019040E41AA2BF01EB0451294330BD5D
:1005C8006FEA04041F3C1CDA0C340EDC04F114043A
:1005D800C4F1200220FA04F001FA02F340EA030011
:1005E80021FA04F345EA030130BDC4F10C04C4F157
:1005F800200220FA02F001FA04F340EA0300294637
:1006080030BD21FA04F0294630BD94F0000F83F480
:10061800801306BF81F480110134013D4EE77FEA63
:10062800645C18BF7FEA655C29D094EA050F08BFAF
:1006380090EA020F05D054EA000C04BF1946104690
:1006480030BD91EA030F1EBF0021002030BD5FEAD4
:10065800545C05D14000494128BF41F0004130BDFC
:1006680014F580043CBF01F5801130BD01F0004550
:1006780045F0FE4141F470014FF0000030BD7FEAC3
:10068800645C1ABF194610467FEA655C1CBF0B46BE
:10069800024650EA013406BF52EA033591EA030FD5
:1006A80041F4002130BD00BF90F0000F04BF0021CD
:1006B800704730B54FF4806404F132044FF0000500
:1006C8004FF0000150E700BF90F0000F04BF002179
:1006D800704730B54FF4806404F1320410F00045DF
:1006E80048BF40424FF000013EE700BF42004FEADA
:1006F800E2014FEA31014FEA02701FBF12F07F4357
:1007080093F07F4F81F06051704732F07F4208BF0D
:10071800704793F07F4F04BF41F40021704730B514
:100728004FF4607401F0004521F000411CE700BF60
:1007380050EA010208BF704730B54FF000050AE0E3
:1007480050EA010208BF704730B511F0004502D5E4
:10075800404261EB41014FF4806404F132045FEAE6
:10076800915C3FF4D8AE4FF003025FEADC0C18BF8F
:1007780003325FEADC0C18BF033202EBDC02C2F181
:10078800200300FA03FC20FA02F001FA03FE40EA13
:100798000E0021FA02F11444BDE600BF4FEA4102FF
:1007A800B2F1E04324BFB3F5001CDCF1FE5C0DD9C7
:1007B80001F0004C4FEAC0024CEA5070B2F1004F11
:1007C80040EB830008BF20F00100704711F0804F14
:1007D80021D113F13872BCBF01F00040704741F4D9
:1007E80080114FEA5252C2F11802C2F1200C10FADD
:1007F8000CF320FA02F018BF40F001004FEAC123C1
:100808004FEAD32303FA0CFC40EA0C0023FA02F364
:100818004FEA4303CCE77FEA625307D150EA01333A
:100828001EBF4FF0FE4040F44000704701F000400A
:1008380040F0FE4040F40000704700BF53B94AB989
:10084800002908BF00281CBF4FF0FF314FF0FF30D0
:1008580000F088B9ADF1080C6DE904CE00F006F897
:10086800DDF804E0DDE9022304B070472DE9F04724
:10087800089D0F4604468C46002B48D18A421646EE
:1008880061D9B2FA82F34BB1C3F1200201FA03FC39
:1008980020FA02F29E4042EA0C0C9C404FEA164EA7
:1008A800B7B2BCFBFEF1220C0EFB11CC42EA0C42A3
:1008B80001FB07F0904209D9B21801F1FF3C80F022
:1008C800EE80904240F2EB8002393244121AA4B210
:1008D800B2FBFEF00EFB102244EA024400FB07F7CD
:1008E800A74209D9341900F1FF3280F0DA80A74213
:1008F80040F2D7803444023840EA0140E41B00212A
:100908001DB1DC400023C5E90043BDE8F0878B42F8
:1009180006D90DB1C5E9000100210846BDE8F087F8
:10092800B3FA83F1002948D1BB4202D3824200F2D4
:100938000781841A67EB030201209446002DE4D056
:10094800C5E9004CE1E7002A00F09280B2FA82F390
:10095800002B40F0A8808A1A4FEA164E1FFA86FC30
:100968000121200CB2FBFEF70EFB172240EA0242DF
:100978000CFB07F0904207D9B21807F1FF3802D2F2
:10098800904200F2E2804746121AA4B2B2FBFEF08F
:100998000EFB102244EA02440CFB00FCA44507D9D4
:1009A800341900F1FF3202D2A44500F2CB80104680
:1009B800A4EB0C0440EA0740A2E7C1F120068B40F3
:1009C80022FA06FC4CEA030C07FA01F420FA06F3B3
:1009D800F7404FEA1C49234300FA01F81FFA8CFE3E
:1009E800B7FBF9F01C0C09FB107744EA074400FB3D
:1009F8000EF7A74202FA01F20AD91CEB040400F12F
:100A0800FF3A80F09B80A74240F298800238644405
:100A1800E41B9FB2B4FBF9F309FB134447EA04440F
:100A280003FB0EFEA64509D91CEB040403F1FF37AE
:100A380080F08280A6457FD9023B644443EA0040A7
:100A4800A4EB0E04A0FB02E7BC427346B94663D38D
:100A580060D05DB1B8EB030264EB090404FA06F652
:100A680022FA01F31E43CC40C5E9006400214CE79B
:100A78006208480842EAC1710B0C43EA00438AB293
:100A880042EA0342B3FBF6F1E407B4463746B646FA
:100A98001F23B0FBF6F0D21B41EA004161E7614633
:100AA80014E7104628E7C3F1200120FA01F29E401E
:100AB80027FA01F19F403A434FEA164E1FFA86FC87
:100AC800B1FBFEF70EFB1710110C41EA004107FBC2
:100AD8000CF8884504FA03F43AD9711807F1FF3085
:100AE80001D288451FD8A1EB0801B1FBFEF808FB2D
:100AF8000CF70EFB181192B242EA0142BA422FD209
:100B0800B21808F1FF31C6D2BA42C4D2A8F1020124
:100B18003244C0E7F0459CD2BEEB020367EB0C07FA
:100B28000138B94695E7A6EB08084144B81EB1FB61
:100B3800FEF808FB0CF7DCE73B467FE7504667E723
:100B48000846FBE63444023832E7023F32441BE7EA
:100B5800A1EB08013846B1FBFEF808FB0CF7C8E723
:100B6800414698E7704700BF38B50E4B1A784FF4E6
:100B78007A73B3FBF2F30C4A05461068B0FBF3F046
:100B880000F0DAFA044658B90F2D09D8024629466A
:100B98004FF0FF3000F090FA044B20461D6038BD3E
:100BA8000120FCE700000020B40100200400002020
:100BB80008B50B4B1A6842F400721A601A6842F4BE
:100BC80080621A601A6842F480721A60032000F08A
:100BD80061FA0020FFF7C8FF03F098FD002008BD68
:100BE800003C0240034A044B11681B780B44136015
:100BF800704700BFD401002000000020014B186896
:100C0800704700BFD401002038B50446002800F022
:100C18009B80056C25B903F095FD656484F83C500C
:100C2800236CDB0600F18E80236C23F4885323F0B9
:100C3800020343F002032364444B5A6822F440320F
:100C48005A605A6861680A435A60236821695A6879
:100C580022F480725A605A6842EA01225A605A683D
:100C6800A16822F040725A605A680A435A609A682A
:100C7800E16822F400629A609A680A439A603449EB
:100C8800A26A8A4252D0996821F070619960996885
:100C98000A439A609A68E16A22F040529A609A6818
:100CA8000A439A609A6822F002029A609A68217E42
:100CB80042EA41029A6094F82020002A3ED05A68FD
:100CC800616A42F400625A605A6822F460425A60CB
:100CD8005A68013942EA41325A60DA6AE16922F413
:100CE8007002DA62DA6A013942EA0152DA629A6813
:100CF80022F400729A609A6894F8301042EA41220D
:100D08009A609A68616922F480629A609A68002001
:100D180042EA81229A606064236C23F0030343F063
:100D280001032364002384F83C3038BD9A6822F01C
:100D380070629A609A6822F04052B2E75A6822F4C8
:100D48000062C9E70120EDE70120EEE7002301403A
:100D58000100000F82B00023019390F83C30012B72
:100D68005CD0012380F83C3003689A68D1070BD522
:100D78009A68D2071AD4036C43F010030364436CD7
:100D880043F00103436446E09A68254942F00102B2
:100D98009A60244A1268B2FBF1F202EB4202019215
:100DA800019A002AE4D0019A013AF8E7026C22F489
:100DB800E06222F0010242F4807202645A6851052E
:100DC80041BF026C22F4405242F480520264026C29
:100DD80012F480521CBF426C22F0060242640022C8
:100DE80080F83C206FF022021A605A6842F0806254
:100DF80042F020025A600C4A5268D20608D19A681A
:100E080012F0405F02BF9A6842F080429A6002E0A6
:100E1800064A9342F3D0002002B070470220FBE755
:100E280040420F00B401002000230140002001408F
:100E38000368D86C704770477047036870B51E68C0
:100E48005D68B20704462BD5A80629D5226CD106C1
:100E58005EBF226C42F4007222649A6812F0405F0E
:100E680017D1227EAAB9DA6A12F4700F02D09A68F2
:100E780052050ED45A6822F020025A60236C23F4DB
:100E880080732364236CD8045EBF236C43F0010392
:100E98002364204603F095F823686FF012021A6065
:100EA800710733D52A0631D5236CDB065EBF236C68
:100EB80043F40053236423689A6812F4401F1ED138
:100EC8009A6B12F4401F02D09A68500517D45A68DA
:100ED800510514D49A6812F0405F10D1227E72B97D
:100EE8005A6822F080025A60236C23F480532364EA
:100EF800236CDA055EBF236C43F0010323642046AC
:100F080000F0C6F823686FF00C021A60F30710D5DA
:100F180068060ED523681B68D9070AD5236C43F4E5
:100F2800803323642046FFF786FF23686FF00102B1
:100F38001A60B2060ED56B010CD5636C43F0020340
:100F4800636423686FF020051D602046FFF774FF77
:100F580023681D6070BD0000F7B50023019390F869
:100F68003C30012B054600F08680012380F83C3098
:100F780008682B688E68092884B233D904EB4402C8
:100F8800DF681E3A4FF0070C0CFA02FC27EA0C0740
:100F9800DF60DF6806FA02F23A43DA604968062938
:100FA80001EB81022DD8596B053A1F26964021EA9C
:100FB80006015963596B04FA02F20A435A632F4A2D
:100FC80093420AD1122837D12D4B5A6822F40002D5
:100FD8005A605A6842F480025A60002085F83C0042
:100FE80003B0F0BD1A6900EB400C072707FA0CF7AD
:100FF80022EA07021A611A6906FA0CF616431E61FC
:10100800CCE70C294FF01F010BD81E6B233A9140F7
:1010180026EA01011963196B04FA02F20A431A63FA
:10102800CDE7DE6A413A914026EA0101D962D96AE0
:1010380094400C43DC62C2E7124B984201D011285D
:10104800CBD10F4B5A6822F480025A605A6842F496
:1010580000025A600B4B9842BFD10B4B0B4A1B68DE
:10106800B3FBF2F30A2253430193019B002BB4D044
:10107800019B013BF8E70220B2E700BF00200140D6
:101088000023014012000010B401002040420F006C
:10109800704700000749CA6822F4E062030212049C
:1010A80003F4E063120C134343F0BF6343F40033CB
:1010B800CB60704700ED00E0164B30B5DC68C4F338
:1010C8000224C4F10703251D042B28BF0423062D81
:1010D8004FF0FF358CBF033C002405FA03F321EAE7
:1010E8000303A54022EA0502A340002843EA0203BD
:1010F800ACBF00F16040084A4FEA0313B8BF00F0E4
:101108000F00DBB2AABF00F56140135480F800332A
:1011180030BD00BF00ED00E014ED00E0002807DB63
:10112800044A4109012300F01F00834042F821309E
:10113800704700BF00E100E00138B0F1807F0BD2BA
:101148004FF0E023054A5861F02182F8231000206F
:10115800072298611A6170470120704700ED00E08E
:1011680070B50446866DFFF749FD94F83530022BBB
:10117800054606D0802363650120002384F83430B7
:1011880070BD23681A6822F016021A605A6922F0A4
:1011980080025A61226C0AB9A26C1AB11A6822F04C
:1011A80008021A601A6822F001021A602368186897
:1011B80010F0010007D1E26D3F239340B360012393
:1011C80084F83530D9E7FFF719FD401B0528EDD91C
:1011D80020230320636584F83500CEE790F8353086
:1011E800022B03D080234365012070470268052342
:1011F80080F83530136823F001031360002070472E
:1012080090F83500704700002DE9F74FDFF880911E
:101218005D4A00230D6801249C4004EA0506AC439E
:1012280040F0A3804D68032705F003044FEA430804
:1012380007FA08FC671E012F6FEA0C0C34D8876880
:1012480007EA0C0ECF6807FA08F747EA0E07876027
:10125800476827EA060EC5F300179F4047EA0E07BE
:101268004760C76807EA0C0E8F6807FA08F747EA6D
:101278000E07022CC76019D14FEAD30A00EB8A0A7D
:1012880003F0070BDAF820704FEA8B0B4FF00F0EC4
:101298000EFA0BFE27EA0E0E0F6907FA0BF747EA5C
:1012A8000E07CAF8207001E0032CDAD1076804FAA7
:1012B80008F407EA0C073C4315F4403F046054D097
:1012C80000240194D9F8444044F48044C9F84440C7
:1012D800D9F8444023F0030707F1804704F4804419
:1012E80007F59C37019403F0030C019CD7F808E03C
:1012F8004FEA8C0C0F2404FA0CF42EEA040E234C4B
:10130800A04239D004F58064A04237D004F5806447
:10131800A04235D004F58064A04233D004F580643F
:10132800A04214BF0724042404FA0CF444EA0E046F
:10133800BC609468F74315F4801F0CBF3C403443ED
:101348009460D46815F4001F0CBF3C403443D4604B
:10135800546815F4003F0CBF3C4034435460146893
:10136800ED0354BF3C40344314600133102B7FF429
:1013780051AF03B0BDE8F08F0024D5E70124D3E7CF
:101388000224D1E70324CFE7003C014000000240DB
:101398000038024000690840003818BF0120704733
:1013A8000AB1816170470904FBE7436901EA030256
:1013B80021EA030141EA02418161704701684B69F2
:1013C80013F480634FF0000210D06FF480634B6118
:1013D8002023026380F83D3080F83E20036C80F8BB
:1013E8003C2043F00403036401207047184670470B
:1013F8002DE9F84606460F4691461D464FEA114A22
:101408003368BAF1010F39D15C6927EA0404A4B240
:10141800B4FA84F46409A14501D0002024E06A1CD0
:10142800EFD0FFF7EBFB089BC01AA84201D8002DAC
:10143800E6D1BAF1010F336818D15B6927EA0303D3
:101448009BB2B3FA83F35B099945D9D100232022D3
:10145800336386F83D2086F83E30326C86F83C309F
:1014680042F0200232640120BDE8F8869B69DB4324
:10147800C3F3400383F00103DBB2E5E79C69E4436F
:10148800C4F3400484F00104E4B2C4E72DE9F04158
:1014980004460F46164698462568686927EA0000FC
:1014A80080B2C0B16B695A0517D52B6843F4007335
:1014B8002B606FF480636B6120220023236384F820
:1014C8003D2084F83E30236C43F00403236400235A
:1014D80084F83C300120BDE8F081731CDDD0FFF7B3
:1014E8008DFBA0EB0800B04201D8002ED4D12368B0
:1014F8005A6927EA020292B2002ACDD0002320229C
:10150800236384F83D2084F83E30236C1343DDE7E1
:1015180070B504460D46164623685B691B0601D55F
:1015280000201EE02046FFF749FFC8B96A1CF3D027
:10153800FFF764FB801BA84201D8002DECD123687B
:101548005B6913F08003E7D12022236384F83D20F0
:1015580084F83E30226C84F83C3042F02002226449
:10156800012070BD2DE9F0431546026885B0DDE91C
:101578000C789946136843F4807313600E463B4613
:10158800CDF8008000224FF001110446FFF730FF2C
:10159800236838B11B68DB0502D54FF40073236458
:1015A800032620E006F0FE061E611A4943463A4625
:1015B8002046FFF76BFFA8B9236803905A69039286
:1015C8009B690393424639462046039BFFF7A0FFD9
:1015D800064660B1236C042B01BF2268136843F4EC
:1015E800007313600126304605B0BDE8F083B9F1F9
:1015F800010F236802D1EDB21D61F4E72A0A1A61CE
:10160800394642462046FFF783FF0028E2D1236887
:10161800F1E700BF020001002DE9FF479A46036881
:1016280015461A6842F480621A601A68DDE90C7877
:1016380042F480721A600E463B46CDF800800022C4
:101648004FF001110446FFF7D3FE236838B11B6839
:10165800DB0544BF4FF400732364032021E05FFAE5
:1016680086F906F0FE061E612A4943463A46204698
:10167800FFF70CFFA0B9236803905A6903929B698E
:101688000393424639462046039BFFF741FF58B172
:10169800236C042B01BF2268136843F400731360A2
:1016A800012004B0BDE8F087BAF1010F23681AD110
:1016B800EDB242461D6139462046FFF729FF024632
:1016C8000028E5D121680B6843F480730B6020463D
:1016D800CDF800803B464FF00111FFF789FE2268E4
:1016E80060B11368B4E72A0A1A61394642462046AF
:1016F800FFF70EFF0028CBD12368D9E749F0010393
:1017080004491361204643463A4604B0BDE8F04711
:10171800FFF7BCBE0200010070B504460D46164630
:1017280023685B695B0701D500201EE02046FFF7B0
:1017380045FEC8B96A1CF3D0FFF760FA801BA842BF
:1017480001D8002DECD123685B6913F00403E7D1BD
:101758002022236384F83D2084F83E30226C84F8EC
:101768003C3042F020022264012070BD70B504466E
:101778000D46164621684B6913F0400301D000203E
:1017880011E04A69D2060FD56FF010024A61202293
:10179800236384F83D2084F83E30236C23640023BF
:1017A80084F83C30012070BDFFF728FA801BA8425E
:1017B80001D8002DDED123685B6913F04003D9D12D
:1017C8002022236384F83D2084F83E30236C1343A1
:1017D800E4E7000070B5044608B9012070BD90F830
:1017E8003D3003F0FF021BB980F83C2002F0F6FF01
:1017F800242384F83D3023681A6822F001021A6015
:101808001A6842F400421A601A6822F400421A6008
:1018180001F020FB3F4B65689D4294BF3E4B3F4B18
:1018280098428CBF00230123002BD6D12268394E61
:1018380051683B4BB0FBF3F321F03F011943B5422C
:10184800516088BF4FF49676116A88BF734321F0C0
:101858003F0184BF4FF47A76B3FBF6F301330B43B1
:101868001362D169431E2B4821F44F41854221F070
:10187800FF0132D86D0040F6FC70B3FBF5F301337D
:10188800034242D0C3F30B031943D161D4E90730B3
:101898001168034321F0C0010B4313609168D4E938
:1018A800030321F40341034321F0FF010B43936039
:1018B800D4E90530D168034321F0FF010B43D3601D
:1018C800136843F00103136000202023206484F888
:1018D8003D30206384F83E0080E7A06850B905EBEE
:1018E8004505B3FBF5F30133C3F30B037BB143F4B5
:1018F8000043C9E719206843B3FBF0F30133C3F38E
:101908000B0323B143F44043BEE70423BCE70123A0
:10191800BAE700BFA08601007F841E00FF083D00D3
:1019280040420F002DE9F743044699460C9E0F46A6
:101938009046FFF763F994F83D30202B054603D015
:10194800022003B0BDE8F08300903C49192301222E
:101958002046FFF74DFD0028F2D194F83C30012BCA
:10196800EED02068012384F83C300368D9075EBFB5
:10197800036843F001030360036823F40063036012
:10198800212384F83D30402384F83E30002323642B
:101998000A9B6362BDF82C306385638D2385284BD1
:1019A800E3624246CDE900654B4639462046FFF7DB
:1019B800D9FD00282AD00120C3E7FFF7A9FD40B1CF
:1019C800236C042B01BF2268136843F4007313606F
:1019D800F1E7636A27681A4612F8011B39616262E7
:1019E800628D218D013A92B262857A69481E80B271
:1019F800520720850AD548B15A783A6102336362A2
:101A0800638D013B02399BB221856385238D2A466C
:101A180031462046002BD0D1FFF77EFE0028CFD1DB
:101A28002268136843F400731360202384F83D3060
:101A380084F83C0084F83E0083E700BF02001000F1
:101A48000000FFFF2DE9F043044687B09946109F38
:101A58000D469046FFF7D2F894F83D30202B064605
:101A680004D00225284607B0BDE8F08300907949E4
:101A7800192301222046FFF7BBFC0028F1D194F876
:101A88003C30012BEDD02068012384F83C300368FA
:101A9800DB075EBF036843F001030360036823F4B8
:101AA80000630360222384F83D30402384F83E30ED
:101AB800002323640E9B6362BDF83C306385638D0D
:101AC8002385654BE3622946CDE900764B464246BD
:101AD8002046FFF7A1FD054608B10125C2E7228D82
:101AE8002368A2B902905A6902929A690292029AEC
:101AF8001A6842F400721A60238D002B2CD1202220
:101B080084F83D2084F83C3084F83E30AAE7012A66
:101B18000AD11A6822F480621A6003905A69039203
:101B28009A690392039AE3E7022A0ED11A6822F40B
:101B380080621A601A6842F400621A6004905A6956
:101B480004929B690493049BD6E705905A69059211
:101B58009B690593059BCFE7032B56D8012B15D11D
:101B6800324639462046FFF701FE0028B5D12368E2
:101B78001A69636A1A70636A01336362238D013BD1
:101B88002385638D013B9BB26385B5E7022B3349FF
:101B980000963B464FF00002204619D1FFF728FC7B
:101BA80000289AD123681A6842F400721A601A69E8
:101BB800636A1A70626A531C6362238D013B238532
:101BC800638D013B9BB2638523681B695370D2E721
:101BD800FFF70EFC024600287FF47FAF23681968E0
:101BE80021F4806119601969636A1970636A1B4975
:101BF80001336362238D013B2385638D013B9BB2D7
:101C08006385204600963B46C8E73246394620465B
:101C1800FFF7ACFD00287FF460AF23681A69636A98
:101C28001A70628D616A013A92B24B1C6285226811
:101C38006362238D5069013B9BB2400723857FF582
:101C48005BAF032B02BF136823F48063136013692F
:101C58004B7090E7020010000000FFFF0400010035
:101C6800704770477047704790F83D2008B5036D7E
:101C7800D2B283B9C36C0268012B836C05D1DBB285
:101C88001361036D0233036508BDC3F307231361B2
:101C9800036D0133F7E7036D012B03D1836C0268F1
:101CA800DBB2F4E7036D022B2FD1222A05D102689B
:101CB800136843F480731360EAE7438D9BB263B102
:101CC800212A0AD1436A026813F8011B1161436291
:101CD800438D013B9BB24385D6E7438D9BB2002BD6
:101CE800D2D1212AD0D10268516821F4E061516033
:101CF800116841F4007111602022036380F83D20CF
:101D080080F83E3002F058F9BEE703685A691206B7
:101D180044BF00221A61B7E77047000037B50023B7
:101D280001932D4B806B1B6890F83D2046F2A8115B
:101D3800B3FBF1F323214B4301930368D2B201991A
:101D480041BB016C41F020010164446B0CB10021DE
:101D5800E163816B09B10025CD631D6825F48065B9
:101D68001D600025458504B1256501B10D6519681B
:101D780021F00101196090F83D10602911D120234C
:101D880080F83D30002380F83E300364FFF7C4FF3D
:101D980003B030BD01990139019119688905CED484
:101DA800D3E702F02802282A0ED1196841F0010170
:101DB8001960196841F4806119600023036380F891
:101DC8003D2002F0A9F8E3E7202380F83D30002306
:101DD80080F83E30F5E700BFB401002010B590F858
:101DE8003D2090F83E30102BD9B204460368D2B299
:101DF80001D0402913D1222A11D1196821F4006198
:101E08001960596811F4006106D1602A1EBF2022AA
:101E180084F83D2084F83E100022226307E002F097
:101E280028012829EDD10022226384F83D105A6840
:101E380012F400624FD05A68606B22F400625A6054
:101E480090F83530012B374B2BD00365FFF7C6F9D7
:101E580050B12268606B136823F0010313602023DC
:101E680084F83D30036D9847236C19071FBF22681B
:101E7800536823F4E063536094F83D30226C5207B2
:101E8800DBB20DD5282B0BD1274BE3622022002390
:101E98002363204684F83D2084F83E30FFF7E3FEB4
:101EA80010BDA06B0365FFF799F90028DCD0236803
:101EB8005A69510605D51A69636A1A70636A01334B
:101EC80063622268A06B136823F001031360202368
:101ED80084F83D30C6E794F83D10602915D12021DB
:101EE80084F83D1022645A69520605D51A69636A56
:101EF8001A70636A013363622268136823F001036E
:101F080013602046FFF708FFAEE75A69500605D56B
:101F18001A69636A1A70636A01336362204601F0C2
:101F2800FBFFA1E7251D00080000FFFFF0B50368CF
:101F380004465A68C66A90F83E0094F83D10102886
:101F48008FB0C5B2C9B202D0402D40F0DD829F6982
:101F5800586910F0010F07D1B6F52A0F02D0B6F173
:101F68002A4F51D10FB0F0BD96054DD5E26AB2F5B2
:101F78002A0F0CD10122E26294F83E20402A11D1A6
:101F8800226D52B9626C02F0FE021A61EAE7E26A57
:101F9800B2F12A4FF0D10822EDE7626C42F001025B
:101FA800D2B2F2E72269B2F5804F1AD194F83D20F7
:101FB800212A626C11D102F0FE021A61626B0AB129
:101FC800D26B2AB9A26B002ACCD0D26B002AC9D016
:101FD8005A6842F400625A60C4E742F00102D2B281
:101FE800EBE7226D32B9626CD21102F0060242F0C0
:101FF800F002CAE7226D012AB4D1626CD21102F054
:10200800060242F0F102C0E7060703D5960501D59E
:10201800626CE4E7860740F1E880960540F1E580C8
:1020280094F83E10E26A256B94F83D002228C9B264
:1020380040F0D380206D40B9402906D101905A69FB
:1020480001929B690193019B8CE7216D89B92069F5
:10205800B0F5404F0DD102915A6902929A690292E5
:10206800029A1A6842F480721A60236D013323655C
:1020780078E7618D89B251B903915A6903929A69D7
:102088000392039A1A6842F400721A6019E0618D8B
:1020980089B2012949D112F5803F1BD11A6822F46F
:1020A80080621A605A6812F400620CD01A6822F42E
:1020B80080621A60002204925A6904929B69049310
:1020C800049B0023D3E705925A6905929A69059201
:1020D800059AD7E7082A1CD0202A1AD0122D0DD12C
:1020E800012A16D11A6822F480621A600022069228
:1020F8005A6906929B690693069BE2E7102AF1D873
:10210800824941FA02F2D707ECD41A6842F4806295
:10211800EBE71A6822F480621A60002207925A6973
:1021280007929A690792079AACE7618D89B20229EA
:1021380030D1102A03D87649D140CE0715D4196872
:1021480021F480611960196841F4006119605968C7
:102158000D0514D5202A1AD8072A0AD8012A0ED123
:102168005A6842F480525A6009E0196841F4806163
:10217800ECE7A2F10801674ACA40D007F0D4002270
:1021880008925A6908929B690893089B99E712F587
:10219800803FE4E7196841F48061196059680905CE
:1021A80010D5202A16D8072A06D8012A0AD15A6833
:1021B80042F480525A6005E0A2F10801554ACA402B
:1021C800D207F4D4002209925A6909929B690993AB
:1021D800099B76E712F5803FE8E700220A925A69E0
:1021E8000A929B690A930A9BBCE67F0740F1948098
:1021F8005E6836053FF5B6AE070600F004063ED524
:1022080050053CD5002E3DD194F83D20258D94F8FD
:102218003E10E06AD2B2C9B2C5B9212A18D108283D
:1022280058D0202856D010F5803F53D05A6822F451
:10223800E0625A6011232363002384F83E30202390
:1022480084F83D30204601F021FE8BE6212A05D096
:1022580040297FF487AE222A7FF484AE628D92B241
:102268001AB95A6822F48062B5E694F83E20402AEA
:1022780016D120460FB0BDE8F040FFF7F5BC002EA0
:102288003FF470AE97057FF56DAE212939D1E16A2B
:1022980094F83D20212A7FF465AE628D92B24AB14E
:1022A800626A12F8011B19616262638D013B9BB27D
:1022B800638557E608290DD020290BD011F5803FFA
:1022C80008D0596821F4E06159601123236384F828
:1022D8003E20B4E75A6822F4E0625A601A6842F471
:1022E80000721A6000232022236384F83D2094F8AA
:1022F8003E2084F83E30402A2046A4D101F05CFEFE
:1023080030E6402D7FF42EAEB3E700BFEBFFFEFFB3
:10231800140001000101000159680E053FF522AEC5
:10232800450600F0040140F18680500540F18380A5
:10233800002940F0838094F83D20222A7FF412AED1
:10234800E06A628D92B2032A14D91A69636A1A7014
:10235800636A01336362638D013B9BB26385638D5E
:102368009BB2032B7FF4FEAD2268536823F480638D
:102378005360F7E5E56A022D3FF473AF012A3FF693
:1023880070AF7B4A0B91126846F2A811B2FBF1F2CA
:1023980002EB82020B920B9A013A0B920B99D1B97C
:1023A800226C42F0200222645A6822F4E0625A60E9
:1023B8001A69636A1A70636A01336362638D013B49
:1023C8009BB26385202384F83D30204684F83E1074
:1023D80001F0A2FDC6E51A6812F40072DBD1196893
:1023E80021F480611960596821F4E0615960196924
:1023F800636A1970636A01336362638D013B9BB240
:102408006385202384F83D3094F83E3084F83E20DC
:10241800402B04D12263204601F0C4FDA2E5082820
:1024280001D0202801D1002300E012232363204695
:1024380001F040FD96E500293FF494AD92057FF543
:1024480091ADE26A608D616A80B2042809D15A6848
:1024580022F480625A601B690B70636A01336362FD
:1024680023E7608D80B203280CD15868042A20F431
:1024780080605860EFD0022AEDD01A6822F480629A
:102488001A60E8E7608D80B20228E4D1042A33D0CC
:1024980007D8012A07D0022A2ED0186840F4007005
:1024A80004E0102AF9D1186820F4806018601B69CC
:1024B8000B70616A4B1C6362638D013B9BB2638541
:1024C80023681B694B70636A216801336362638DFB
:1024D800013B9BB263854B6823F440734B60202318
:1024E80084F83D3094F83E30402B4FF0000384F8D8
:1024F8003E3005D123638EE7186840F48060D5E745
:10250800082A90D0202A8DE7206C18B35869002536
:1025180087072FD596052DD5226C02B19D6994F8B1
:102528003D2002F02802282A17D15A682F0622F4E3
:1025380080625A60C5F3800154BFE268A269002333
:1025480081F00101C9B284F83C3092B22046FFF70D
:1025580089FB07E59D695869DAE700220C925969F9
:102568000C919B690C930C9B84F83C20FAE400BF07
:10257800B4010020C60640F1B180950540F1AE8057
:1025880094F83D505A6822F4E0625A6000220D9295
:102598005A690D921A6842F001021A600D9A1A6877
:1025A80022F480621A605A681005EDB220D505F051
:1025B800F702222A4AD1A06B0268526892B2628559
:1025C800628D92B21AB1226C42F0040222645A68F7
:1025D80022F400625A60FEF713FE012808D0A06BAF
:1025E800794B0365FEF7FAFD10B1A06B036D9847B0
:1025F800638D9BB213B323685A69510709D51A69C9
:10260800636A1A70636A01336362638D013B9BB22C
:10261800638523685A69520609D51A69636A1A706C
:10262800636A01336362638D013B9BB26385638D8B
:102638009BB21BB1236C43F004032364236C13B3D4
:1026480020460FB0BDE8F040FFF7C8BB606B0268DA
:10265800526892B26285628D92B21AB1226C42F0CF
:10266800040222645A6822F400625A60FEF7C8FD28
:102678000128BDD0606B544B0365FEF7AFFD002801
:10268800B6D0606BB2E72A2D06D12363282384F8DD
:102698003D302046FFF7E5FA94F83D30282B0CD161
:1026A8004A4BE362202200232363204684F83D201E
:1026B80084F83E30FFF7D7FA54E4236B222B02D07C
:1026C800222D7FF44FAC00232022236384F83D2081
:1026D80084F83E302046FFF7C4FA43E401F0F701DE
:1026E800212900F0040535D1070627D5560525D53B
:1026F8003DBB94F83D00628D92B2C0B2002A3FF40F
:1027080031AC626A12F8015B1D616262628D013A46
:1027180092B26285628D92B2002A7FF423AC292896
:102728007FF420AC5A6822F480625A60282321631F
:10273800204684F83D30FFF793FA13E4002D3FF468
:1027480011AC95057FF50EAC628D92B2002A3FF46C
:1027580009ACA5E5400627D5510525D53DBB94F81C
:102768003D20618D89B2D2B200293FF4FBAB1969D3
:10277800636A1970636A01336362638D013B9BB2BC
:102788006385638D9BB2002B7FF4ECAB2A2A7FF420
:10279800E9AB2268536823F48063536022232363E0
:1027A800282384F83D3095E7002D3FF4DBAB9205F4
:1027B8007FF5D8AB628D92B2002A3FF4D3AB1A6989
:1027C800636A1A7049E600BF251D00080000FFFF74
:1027D800F8B503685F695E6890F83E2017F4807565
:1027E8000446D2B206D016F480751EBF6FF480710D
:1027F80059610125B80506D5F10542BF6FF400718E
:1028080045F002055961780536D5F10534D5608D56
:1028180094F83D10D4F830C0202A80B2C9B25FD1F4
:1028280000285DD101F0F700212804D0282957D1CC
:10283800BCF1210F54D194F83D20E16A0829D2B2A5
:1028480001D020292AD1282A28D12E4AE2625A68A2
:1028580022F4E0625A606FF480625A611A6822F4C6
:1028680080621A60002320222363204684F83D20DA
:1028780084F83E30FFF7F7F93A053FD5F3053DD523
:1028880023686FF4006245F008055A61236C1D4304
:1028980025642046BDE8F840FFF7A0BA212A1BD1DD
:1028A8001849E16222630021202284F83D2084F83F
:1028B8003E105A6822F4E0625A606FF480625A61EE
:1028C8001A6822F480621A605A69100648BF1961B2
:1028D8002046FFF7C5F9CFE76FF480625A61CBE76E
:1028E8006FF48061102A596145F0040501D0402A2F
:1028F800C2D11A6842F400721A60BDE7002DC5D132
:10290800F8BD00BF0000FFFF70B5044618B30368A8
:102918004CF6CC421A6045F255521A6042685A6029
:1029280082689A60FEF76AF941F601060546226850
:10293800D06810F0030003D14AF6AA23136070BDD3
:10294800FEF75CF9401BB042F1D92368DB689B07AE
:10295800EDD00320F3E70120F1E703684AF6AA2245
:102968001A600020704700002DE9F341044640B387
:102978000368DE0710D423689D075BD42368190712
:1029880000F19D8023685A0700F1BD80A369002BE0
:1029980040F0248100202CE08D4B9A6802F00C0254
:1029A800042A07D09A6802F00C02082A0BD15B6847
:1029B800590208D5864B1B689A03DCD56368002B3F
:1029C800D9D1012015E06368814DB3F5803F13D15B
:1029D8002B6843F480332B60FEF710F97C4E0546D4
:1029E80033689B03C7D4FEF709F9401B6428F7D95D
:1029F800032002B0BDE8F081B3F5A02F04D12B6805
:102A080043F480232B60E3E72A6822F480322A60AB
:102A18002A6822F480222A60002BDDD1FEF7EEF826
:102A280006462B689F03A6D5FEF7E8F8801B6428A6
:102A3800F7D9DDE7664B9A6812F00C0F07D09A6851
:102A480002F00C02082A11D15B685D020ED4604ABC
:102A58001368990702D5E368012BB2D1136821697D
:102A680023F0F80343EAC103136087E7E268594B90
:102A7800B2B101221A60FEF7C1F8554D06462B681F
:102A88009B0707D52B68226923F0F80343EAC203A2
:102A98002B6073E7FEF7B2F8801B0228EFD9A7E78F
:102AA8001A60FEF7ABF84A4E054633689F077FF574
:102AB80065AFFEF7A3F8401B0228F6D998E76269CC
:102AC800444B82B10122C3F8802EFEF797F8404E9E
:102AD8000546736F9B073FF555AFFEF78FF8401B10
:102AE8000228F6D984E7C3F8802EFEF787F8384E17
:102AF8000546736F9F077FF545AFFEF77FF8401BCC
:102B08000228F6D974E7324B1A6C12F0805228D199
:102B180001921A6C42F080521A641B6C03F08053C5
:102B28000193019B01272C4D2B68D8051BD5A36861
:102B3800274D012B27D12B6F43F001032B67FEF79D
:102B48005DF8234E054641F28838336F9A0739D528
:102B5800002F3FF41BAF1E4A136C23F080531364FD
:102B680014E70027DFE72B6843F480732B60FEF738
:102B780045F806462B68D905D9D4FEF73FF8801BDF
:102B88000228F7D934E7052B04D12B6F43F004034F
:102B98002B67D0E72A6F22F001022A672A6F22F0FA
:102BA80004022A67002BCAD1FEF728F841F28838B8
:102BB80006462B6F9B07CBD5FEF720F8801B4045B8
:102BC800F7D915E7FEF71AF8401B4045BDD90FE7BE
:102BD800003802400000474200700040374DAA68A4
:102BE80002F00C02082A3ED0022B354B4FF00002AF
:102BF8001A662BD1FEF702F806462B6899011FD4F6
:102C0800D4E907321343626A43EA8213E26A43EA69
:102C18000263A26A5208013A43EA02436B60284BF6
:102C2800264D01221A66FDF7E9FF04462B689A0132
:102C38003FF5B0AEFDF7E2FF001B0228F6D9D7E654
:102C4800FDF7DCFF801B0228D7D9D1E6FDF7D6FFB8
:102C580004462B689B017FF59DAEFDF7CFFF001B57
:102C68000228F6D9C4E6012B3FF4ABAE6B68E269E3
:102C780003F4800191427FF4A4AE216A03F03F027D
:102C88008A427FF49EAE616A47F6C0721A40B2EB80
:102C9800811F7FF496AEA26A520803F44031013ACC
:102CA800B1EB024F7FF48DAEE26A03F07063B3EBD1
:102CB800026F14BF012000209BE600BF00380240CD
:102CC80000004742134908B58B6803F00C03042B36
:102CD8001CD0082B1CD14A684B68496813F4800340
:102CE80014BF0D480D48C1F3881118BF002302F026
:102CF8003F02A1FB0001FDF7A1FD064B5B68C3F392
:102D0800014301335B00B0FBF3F008BD0248FCE768
:102D18000248FAE70038024040787D010024F400B8
:102D28002DE9F0410D46044610B90120BDE8F081B7
:102D3800434B1A6802F007028A4228D321688F079A
:102D48002DD4C80740D43E4B1A6802F00702AA42A5
:102D580065D8226851076BD4130707D5394A21690A
:102D6800936823F4604343EAC1039360FFF7AAFF23
:102D7800344B354A9B68C3F30313D35CD840334BB9
:102D88001860334B1868FDF7EFFE0020CEE7CAB293
:102D98001A701B6803F007038B42C6D1CEE7294B94
:102DA80011F0040F1EBF9A6842F4E0529A600E07B1
:102DB80042BF9A6842F460429A609A68A06822F01A
:102DC800F00202439A60BCE762681E4B012A1CD1DC
:102DD8001B6813F4003FA8D01A4EB36823F003030E
:102DE8001343B360FDF70AFF41F288380746B3681A
:102DF800626803F00C03B3EB820FA4D0FDF7FEFE6C
:102E0800C01B4045F3D9032090E7911E01291B6898
:102E180002D813F0007FDEE713F0020FDBE7EAB217
:102E28001A701B6803F00703AB427FF47EAF90E78C
:102E38000449E0688B6823F4E05303438B608BE715
:102E4800003C024000380240F04B0008B40100206A
:102E580004000020044B054A9B68C3F38223D35C1B
:102E6800034A1068D840704700380240E84B000811
:102E7800B4010020044B054A9B68C3F34233D35C7A
:102E8800034A1068D840704700380240E84B0008F1
:102E9800B4010020036A026A22F0010270B50262DE
:102EA800446882690D6822F073022A438D6823F012
:102EB80002032B430A4DA8420BD1CD6823F0080327
:102EC8002B43D1E9055624F44074354323F0040319
:102ED8002C43446082614A684263036270BD00BF4C
:102EE80000000140036A026A22F4807270B502622F
:102EF8004468C2690D6822F073022A438D6823F47E
:102F0800007343EA05230B4DA8420DD1CD6823F485
:102F1800006343EA0523D1E9055624F440543543B8
:102F280023F4806344EA05144460C2614A68C263BA
:102F3800036270BD00000140036A026A22F48052F5
:102F480030B502624468C2690D6822F4E64242EA7A
:102F580005228D6823F4005343EA0533064DA84241
:102F680002BF4D6924F4804444EA85144460C26178
:102F78004A680264036230BD000001407047704730
:102F88007047704770477047036870B5DD681E6901
:102F9800B10704460DD5AA070BD56FF002021A61D6
:102FA800012202779B699B0769D0FFF7EAFF00239C
:102FB8002377710710D56A070ED523686FF00402CE
:102FC8001A61022222779B6913F4407F20465CD065
:102FD800FFF7D7FF0023237733070FD528070DD531
:102FE80023686FF008021A6104222277DB699907C7
:102FF800204650D0FFF7C5FF00232377F20610D5EF
:10300800EB060ED523686FF010021A6108222277AA
:10301800DB6913F4407F204643D0FFF7B2FF00235B
:103028002377F00708D5E90706D523686FF0010272
:103038001A612046FFF7A3FF320608D52B0606D5EE
:1030480023686FF080021A61204600F01CF97006B0
:1030580008D5690606D523686FF040021A61204634
:10306800FFF791FFB20622D5AB0620D523686FF093
:10307800200220461A61BDE8704000F003B9FFF74E
:103088007FFF2046FFF77EFF91E7FFF779FF204695
:10309800FFF778FF9EE7FFF773FF2046FFF772FF01
:1030A800AAE7FFF76DFF2046FFF76CFFB7E770BD93
:1030B8001D4A036890420ED0B0F1804F0BD0A2F5A4
:1030C8007C42904207D002F58062904203D002F51C
:1030D8008062904208D14A6823F070031343CA689B
:1030E80023F4407313430AE0104A9042F7D002F5E4
:1030F80080629042F3D002F580629042EFD04A6934
:1031080023F0800313438A68C2620A688262064A0F
:10311800904204BF0A690263026842F00402026036
:1031280001224261036070470000014000400140F5
:1031380010B5044630B390F83D3003F0FF021BB9D8
:1031480080F83C2001F026FC0223206884F83D30FA
:10315800211DFFF7ADFF012384F84630002084F8D5
:103168003E3084F83F3084F8403084F8413084F8A9
:10317800423084F8433084F8443084F8453084F889
:103188003D3010BD0120FCE710B5044630B390F87F
:103198003D3003F0FF021BB980F83C20FFF7EEFE3C
:1031A8000223206884F83D30211DFFF781FF0123A9
:1031B80084F84630002084F83E3084F83F3084F8A4
:1031C800403084F8413084F8423084F8433084F841
:1031D800443084F8453084F83D3010BD0120FCE7C8
:1031E800036A026A22F0100270B5026244688269BA
:1031F8000D6822F4E64242EA05228D6823F0200396
:1032080043EA05130B4DA8420DD1CD6823F0800386
:1032180043EA0513D1E9055624F44064354323F005
:10322800400344EA8504446082614A688263036219
:1032380070BD00BF0000014010B590F83C30012B74
:1032480004461DD0082A17D007D862B1042A0FD027
:103258000120002384F83C3010BD0C2AF8D1006806
:10326800FFF76AFE02E00068FFF714FE0020F0E7AF
:103278000068FFF7B5FFF9E70068FFF733FEF5E7E9
:103288000220E9E770477047026802F10C0353E82F
:10329800003F23F490730C3242E8003102680029A1
:1032A800F2D102F1140353E8003F23F0010302F1C5
:1032B800140C4CE800310029F3D1036B012B0BD11E
:1032C80002F10C0353E8003F23F0100302F10C0C49
:1032D8004CE800310029F3D1202380F84230002344
:1032E800036370470268C16838B5136923F4405313
:1032F8000B431361054683680069D1680343686915
:103308000343E86921F4164121F00C0103430B4300
:10331800D3605369A96923F440730B4353611F4B6E
:103328009A4203D003F580639A4224D1FFF7A2FDA5
:10333800EA691921B2F5004FD5E90043A0FB010164
:103348001CD1DA184FF0000545EB0503FDF776FAB6
:103358006422B0FBF2F102FB1103DB003233B3FB52
:10336800F2F303F007025B0002EB011203F4F873B7
:103378001344A36038BDFFF76DFDD9E79A009B0F92
:10338800FDF75CFA6422B0FBF2F102FB11031B01AA
:103398003233B3FBF2F303EB0113EAE70010014009
:1033A80010B5044648B390F8413003F0FF021BB94A
:1033B80080F8402001F00EFB2268242384F8413075
:1033C800D36823F40053D3602046FFF78BFF2368AC
:1033D8001A6922F490421A615A6922F02A025A6143
:1033E800DA6842F40052DA6000202023606484F82E
:1033F800413084F84230606310BD0120FCE790F84A
:103408004130202B10D189B182B1C28401628284FB
:10341800016800232122436480F84120CA6842F0F1
:103428008002CA6018467047022070470120704722
:10343800704708B5806B0023C385FFF7F9FF08BD07
:10344800704790F84230222B07B542D18168026854
:10345800836AB1F5805F3ED1016900293ED1526887
:10346800C2F3080223F8022B8362C38D013B9BB28F
:10347800C385002B2DD10268D16821F02001D160CD
:10348800D16821F48071D160516921F00101516145
:10349800202280F842204363026B012A026827D168
:1034A800036302F10C0353E8003F23F0100302F119
:1034B8000C0C4CE800310029F3D11368DB0605D564
:1034C80001911368019353680193019B818DFFF764
:1034D800B7FF03B000BD39B9016929B95268D2B242
:1034E8001A70836A0133BFE7526802F07F02F7E778
:1034F80000F063FDEDE7000003681A6873B516076E
:10350800D9685D69044608D1960668D58D0666D5E2
:1035180002B0BDE87040FFF794BF05F0010001F468
:10352800907505435BD0D60705D5CD0542BF636CC2
:1035380043F001036364530704D518B1636C43F087
:1035480002036364960704D518B1636C43F004035F
:103558006364150707D501F0200303431EBF636C9E
:1035680043F008036364636C002B32D0920604D5E1
:103578008B0602D52046FFF764FF26687369626CE4
:1035880003F0400302F0080253EA0205204622D065
:10359800FFF77AFE73695E0618D5226802F11403F4
:1035A80053E8003F23F04003143242E80031002979
:1035B800F3D1E06B50B1774B0365FDF70FFE40B1D7
:1035C800E06B036D02B0BDE8704018472046FFF776
:1035D8002FFF02B070BDFFF72BFF6564F9E7206B82
:1035E800012840F09B80D50640F19880C80640F13C
:1035F8009580002201921A6801925A680192019AF4
:103608005969A28D490656D5E06B0168496889B2A7
:10361800002947D0914245D2C269E185B2F5807F41
:1036280036D003F10C0252E8002F22F4807203F125
:103638000C0040E800210029F3D103F1140252E8FC
:10364800002F22F0010203F1140040E800210029B4
:10365800F3D103F1140252E8002F22F0400203F1E3
:10366800140040E800210029F3D1202284F84220E8
:10367800216303F10C0252E8002F22F0100203F13B
:103688000C0040E800210029F3D1E06BFDF768FD4C
:1036980002236363E38DA18DC91A89B22046FFF71F
:1036A800CFFE96E7914294D1C369B3F5807F90D15C
:1036B80002236363F2E7E18DE08D80B289B20028CE
:1036C80087D0511A89B2002983D003F10C0252E83D
:1036D800002F22F4907203F10C0545E80020002821
:1036E800F3D103F1140252E8002F22F0010203F192
:1036F800140545E800200028F3D1202284F8422050
:10370800206303F10C0252E8002F22F0100203F1AB
:103718000C0545E800200028F3D1C9E7160628D58E
:103728000D0626D594F84120212A7FF452AFA168CE
:10373800226AB1F5805F17D12169A9B932F8021B55
:10374800C1F3080159602262E28C013A92B2E28424
:10375800002A7FF43EAFDA6822F08002DA60DA6885
:1037680042F04002DA6034E7511C216212785A6054
:10377800EAE750067FF52DAF4A067FF52AAFDA68EB
:1037880022F04002DA60202384F84130204600F01D
:1037980016FC1EE73B340008C285002382850269B7
:1037A8004364222380F84230816203681AB1DA68E0
:1037B80042F48072DA605A6942F001025A61DA68AA
:1037C80042F02002DA600020704770B590F842603D
:1037D800202E07D141B13AB100240463FFF7DCFF82
:1037E800204670BD0220FCE70120FAE7084A094894
:1037F80010B50A2301241146C2E901441360FDF7FC
:10380800ABFB054B03481C70BDE81040FDF7A2BA9E
:10381800D8010020487300200800002038B5294C42
:10382800237803F0FF0033BB274A284915680B7833
:10383800274A42F823500133DBB21F2B0ED80B70F6
:10384800244A2548002311461360FDF785FB03230E
:103858002370BDE838402048FDF77CBA134608704D
:10386800024653F8041B0132202A0844F9D14009C2
:1038780000F0D6FCE4E72378022B22D1124A17493C
:1038880010680B78164A42F823000133DBB21F2B6D
:1038980009D80B700F4A10480A2311461360FDF728
:1038A8005BFB0123D4E7002013460870024653F857
:1038B800041B0132202A0844F9D1400900F0C6FC53
:1038C800E8E738BD08000020E8010020EC010020EE
:1038D800F0010020D801002048730020ED010020ED
:1038E8007002002008B50648FDF7A2FA054B1860DB
:1038F800054B1A78032A0CBF022200221A7008BD51
:1039080048730020E80100200800002008B500F0F6
:103918004DF90E4BFF221A705A709A70DA701946D8
:103928000122A52001320D2A187103F10503F9D1EE
:10393800992381F84030064B0649074800221A703F
:10394800BDE808400122FFF740BF00BF6803002020
:10395800B8030020B1030020B0710020F8B5764B01
:10396800764C1A78002A2DD07549764D00220A60C7
:1039780075491A700878287001227448FFF725FFE6
:103988002368032B17D82A78FF2A16D00023236030
:103998006F4C2368002B0DDA6E4D2B7803F0FF0176
:1039A8002BB36D4A13680133052B136002DD002326
:1039B80013602B70F8BD072BE8D85A1C2260674AA1
:1039C8002978D1542368072BE2D9644B18795B799D
:1039D8008342DBD1FC2805D1614B01221A7000F02B
:1039E800F3FAD3E7FD28FAD15D4B0022F6E7544AF3
:1039F80013680133052B136005DD116053485249E4
:103A08000122FFF7E2FE236864332360554C4FF030
:103A1800FF3323606360544B1B68A360504B1B78D3
:103A2800002B4DD0514B524E1A68E260DA6822637F
:103A38009A6962655A6822611A696263DA69A265DD
:103A48009A6862615A691B6AA263E36504F1180205
:103A580006F11807334603CBBB42106051601E467F
:103A680002F10802F6D1434E434A06F118073346DD
:103A780003CBBB42106051601E4602F10802F6D12A
:103A88003E4E3F4A06F11807334603CBBB4210604F
:103A980051601E4602F10802F6D1032000F0DCFB5B
:103AA800E061042000F0D8FB6062052000F0D4FB40
:103AB8002C49E06278222548FFF7A1FC012378E72A
:103AC800304B314E1A68E260DA6822639A6962659F
:103AD8005A6822611A696263DA69A2659A68626142
:103AE8005A691B6AA263E36504F1180206F1180714
:103AF800334603CBBB42106051601E4602F10802F8
:103B0800F6D1224E1C4A06F11807334603CBBB42B6
:103B1800106051601E4602F10802F6D11C4E184A88
:103B280006F11807334603CBBB42106051601E46AE
:103B380002F10802F6D1B0E7B8030020B403002070
:103B4800C0030020B1030020B2030020B0710020A0
:103B58000C000020C4030020BC030020A90300209F
:103B680009000020F0020020200000203871002009
:103B7800A8700020C07000202C030020D8700020FE
:103B880050030020F07000201870002030700020D2
:103B980048700020014B01221A707047B8030020BA
:103BA800014B00221A707047C403002070B5114CF5
:103BB800002141F221050A0292B20820002383EA7B
:103BC800020616F4004F4FEA430300F1FF3018BF16
:103BD8006B40520080B29BB292B20028EFD1013103
:103BE80089B2B1F5807F24F8023BE4D1024B01226F
:103BF8001A7070BDC6030020C6050020704700007B
:103C08001E4AF8B513781E4C8BB123681D48013B3A
:103C18002360802100231370FDF7BCFB1A4B1A7830
:103C2800824204D0194A187013680133136023685C
:103C3800002B21DC23681549154D0868643323607F
:103C4800144B154C1A6845F82200226810441A686B
:103C580001321A601A680B26B2FBF6F706FB172228
:103C68001A601B6855F82330C01A002320600B60C7
:103C7800BDE8F84000F0DABAF8BD00BF0006002041
:103C88001000002000040240C7050020FC050020A9
:103C9800CC050020F8050020C805002010B56422D6
:103CA80086B00123CDE901320DF1170200240092FC
:103CB8004F228DF81740FDF7C5FE18B99DF817007B
:103CC80006B010BD2046FBE72DE9F0413E2186B045
:103CD8000546FFF7E3FF402803D0012006B0BDE802
:103CE800F081012464270DF117064FF08008CDE913
:103CF80001470096234660223E2128468DF817800A
:103D0800FDF710FE0028E8D1CDE9014700962346CB
:103D180062223E2128468DF81740FDF703FE002851
:103D2800DBD13C212846FFF7B9FF4028D5D1CDE9A2
:103D380001470096234660223C2128468DF81780CB
:103D4800FDF7F0FD0028C8D1CDE9014700962346CC
:103D580062223C2128468DF81740FDF7E3FD003824
:103D680018BF0120BAE7F0B589B004AB062664276E
:103D78000C460093CDE90167012368223E210546E0
:103D8800FDF760FE10B1012009B0F0BDBDF810309C
:103D98002380BDF812306380BDF81430A38006ABD1
:103DA8000093CDE90167012368223C212846FDF7ED
:103DB80049FE0028E7D1BDF81830E380BDF81A3075
:103DC8002381BDF81C306381DEE7000008B5064892
:103DD800FFF77AFF054A0023136053609360044A93
:103DE80013605360936008BD4C7200200E060020DB
:103DF8000206002030B585B01848194C194D01A9A4
:103E0800FFF7B1FF10BBBDF804302380BDF80630C2
:103E18006380BDF80830A380BDF80A302B80BDF858
:103E28000C306B80BDF90E300D48AB80012100F0DD
:103E38003BF90C48022100F037F900232360636046
:103E4800A3602B606B60AB6005B030BD002323809E
:103E58006380A3802B806B80E6E700BF4C72002054
:103E68000E06002002060020032808D1044B002279
:103E78001A60044B197809B9034B01221A7070476C
:103E88001C0600201A0600201B06002008B5026840
:103E9800054B9A4206D1FCF7B1FE044B1860044B5F
:103EA80001221A7008BD00BF0054004024060020FB
:103EB800220600200268104B9A4210D10F4B104A7C
:103EC8001B8812785BBAA02AC3F30B030BD10D4AE7
:103ED800117829B1002313700B4B01221A70704717
:103EE8000A4A1380F8E7A22AF6D1094A117800296C
:103EF800F0D1084AF5E700BF005400402906002029
:103F080028060020190000201C0000202E06002092
:103F1800180000202C06002003680D4A934210D197
:103F28000C4B00221A700C4A012313700B4A1370B1
:103F38000B4A13700B4A13700B4A13700B4A137019
:103F480070470B4A934202BF0A4B01221A7070470E
:103F580000540040220600201C0000201B00002006
:103F68001A00002019000020180000202106002057
:103F7800005800402006002008B5FFF737FCFFF77F
:103F8800C5FCFFF73BFEBDE80840FFF71FBF08B5BB
:103F9800FFF744FCFFF7E2FCFFF732FEBDE80840FC
:103FA800FFF728BF0268034B9A4202D10320FFF7AC
:103FB8005BBF7047005C00407047FFF7EBBDFFF741
:103FC800EFBDFFF78FBC0000431EF92B2DE9F74F1B
:103FD800064651D8DFF8C0A0DAF8003098424BD036
:103FE8000024DFF8B890DFF8B880254FDFF8B4B0C8
:103FF800254640F6C4320021484600F0B8FD41F29B
:1040080088720021404600F0B2FD04EB0B034BF828
:1040180004501822C3E901550021384600F0A7FDD5
:10402800184A19481551A318184AC3E90155A31885
:1040380015510021C3E901551822630000EB440023
:10404800019300F094FD019B1148182218440021A7
:1040580000F08DFD0F4A1551A3180C3408F5BC5813
:10406800242CC3E9015509F6C43908F1080807F1F9
:104078001807BED1CAF8006003B0BDE8F08F00BFD2
:10408800A87000201471002060700020F0700020DB
:10409800187000205C71002020000020C84C00200F
:1040A80030060020387100202DE9F04F514A524C5B
:1040B800524F0C234B4303EB0209514A89B09A181B
:1040C800019218224A430D464E49059002EB010819
:1040D8001444BA184C4900924C4A03EB010A1344A1
:1040E800049340F2F1236B4300260693059B069A3E
:1040F80033F91610D8F8007081FB013C0293019B3C
:104108001B680393FB2303FB0623D9F8002053FA0B
:1041180082F33F4A02EBC30E52F83320DEF8040064
:10412800BA1AD8F8047067EB00000790394850F8BD
:10413800230007460398A0EB070B0198029F8B44C6
:1041480040F804BB019002981218079848F8082B09
:1041580040EB0C0048F8040C2068DAF80020C0197D
:10416800676844F8080B47EB0C0B2A4F44F804BC6B
:1041780047F823100A442649029F41F8337026491C
:104188004AF8042BCEF804C0D9F800300968013386
:104198008B4249F8043B1BD3049941F82620009927
:1041A8000023C1E9000B012D4FF000004FF0000182
:1041B80044E9020149F8043C4AF8043C11D13AB9EF
:1041C80000F180404FF4806100F50230FDF7EDF812
:1041D800009B01360833032E009387D109B0BDE850
:1041E800F08F022DF4D1002AF2D10C484FF400616F
:1041F800ECE700BF5C7100206070002018700020A0
:1042080038710020A870002014710020F070002080
:1042180030060020C84C0020200000200008024082
:10422800014B1860704700BFA071002007EE900A8C
:10423800DFED046A044BF8EE677A87EEA67A83ED21
:10424800007A7047FE54B742A4710020014B1860F1
:10425800704700BFAC710020013808B50A2807D89C
:10426800DFE800F075080B27296466696C6F720037
:10427800002008BD3C4B1868FBE73C4B9FED3C7A9F
:10428800D3ED007AF8EE677AC7EE877A17EE900AD0
:10429800FCF72CFA30A3D3E90023FBF799FF30A3EE
:1042A800D3E90023FCF7C2F8FCF778FA314B186021
:1042B800DFE7314BDFE7314BDFED316A93ED007A11
:1042C800304AB8EE477AF0EE087A27EE277AC7EE3A
:1042D800267A92ED007AF4EEC77AF1EE10FA22D43B
:1042E800111D0123B1EC017AF4EEC77AF1EE10FA50
:1042F80016D8013B02EB8302D2ED006A77EEE67A2C
:1043080037EE667AC7EE876A07EE903AF8EEE77AF4
:1043180077EEA67A1C4B17EE900AC3ED007AA8E751
:104328000133642BDED1DFED197AF3E7184BA2E7EE
:10433800174B58689DE7164B98689AE7144BD8684E
:1043480097E7134B186994E7114B586991E7882050
:104358008FE700BFAFF30080D7A3703D0A57214015
:10436800C3F5285C8F02384098710020AC7100209A
:1043780000C04C44A8710020A4710020A071002046
:1043880000F07F45240000209C7100200000C842F6
:1043980080710020054A1368013B1360044A1368C2
:1043A800013B1360034B01221A7070471400002070
:1043B8000C0000200006002010B594B02C2200212B
:1043C80009A800F0D4FB0021142203A800F0CFFBB9
:1043D8000024174B01941A6C42F080521A641B6C2B
:1043E80003F080530193019B124B02941A6842F424
:1043F80040421A601B6803F440430293029B0A235D
:104408001022089308A80123CDE90B32CDE90D3419
:10441800FEF7AAFA0F23CDE9033421464FF4A0533F
:1044280003A8CDE906330594FEF77AFC14B010BD55
:10443800003802400070004080B58CB0FCF7B8FB33
:10444800FFF7BAFF142200210DEB0200002400F050
:104458008EFB9A4B01941A6B9948DFF8AC8242F0B4
:1044680080021A631A6B02F080020192019A029488
:104478001A6B42F004021A631A6B02F004020292E9
:10448800029A03941A6B42F001021A631A6B02F043
:1044980001020392039A04941A6B42F002021A630F
:1044A8001B6B03F002030493224648F22001049B8D
:1044B800FCF776FF834801221021FCF771FF824840
:1044C80022464AF24001FCF76BFF7D4801224FF477
:1044D8000071FCF765FF7B4822464FF44061FCF70A
:1044E8005FFF012278482021FCF75AFF1027744803
:1044F800079405A90125CDE905740326FCF784FE78
:104508004FF408736E48079405A9CDE90535089658
:10451800FCF77AFE4FF441636A4805A9CDE90535F1
:10452800CDE90744FCF770FE20236648079505A9E6
:10453800CDE90534FCF768FE41F2070362480795A8
:1045480005A9CDE90534FCF75FFE4AF260035E4831
:1045580005A9CDE90535CDE90744FCF755FE4FF42B
:1045680088535848079405A9CDE90534FCF74CFE53
:104578004FF40043524805A9CDE90535CDE9074474
:10458800FCF742FE80235048079405A9CDE905347D
:10459800FCF73AFE3A46214605A800F0E8FA4B4AED
:1045A8004B4B13604FF40033C2E901341046494BBA
:1045B8009362D56155611461147682F82040D46203
:1045C800D46082F830400A27FCF71EFB05A93F4853
:1045D8000794CDE90575FCF7BFFC3F4A3F4B1360D4
:1045E8004FF4804544F6206310465360C2E90454F2
:1045F800C2E906449460D4601462FDF7EBF8384AC7
:10460800384B13601046C2E90184C2E90345C2E988
:104618000544C2E90744FDF7DDF8334A334B146219
:104628001046C2E90038C2E90244C2E90454C2E9AA
:104638000644FDF7CFF82E4A2E4B13604FF4E133B2
:10464800C2E9013410460C23C2E90534C2E9034427
:10465800D461FEF7A5FE21461C2205A800F087FAC2
:10466800254A264B13604FF44863C2E901341046CB
:104678004FF6FF73C2E903349461FEF759FD1E48F3
:10468800FEF782FD224605A91B480794CDE9054798
:104698000994FEF7D1FD1A4A1A4B1046C2E90036B2
:1046A80040F2DB539360FEF72FF9FFF765FCFFF745
:1046B8006EFC1348FEF751F9F9E700BF00380240D5
:1046C8000000024000080240000402404873002035
:1046D800002001400100000FF47200200054004047
:1046E800A0720020005800404C720020005C00407E
:1046F800B071002000440040F871002000440140DF
:104708004072002000300040A086010082B00C4BAF
:10471800002100915A6C42F480425A645A6C02F4A7
:1047280080420092009A01911A6C42F080521A64F9
:104738001B6C03F080530193019B02B0704700BFCC
:104748000038024070B5044688B01422002103A83E
:1047580000F00DFA22681E4B9A4237D103F58C33CC
:10476800002400945A6C1B4842F480725A645A6CB4
:1047780002F480720092009A01941A6B42F00402CB
:104788001A631A6B02F004020192019A02941A6BDE
:1047980042F001021A631B6B03F001030293012626
:1047A800032503A9029BCDE90365FCF72DFD0A4803
:1047B800059403A9CDE90365FCF726FD12202246DE
:1047C8002146FCF779FC1220FCF7A8FC08B070BD64
:1047D8000020014000080240000002402DE9F0439B
:1047E80004468DB01422002107A800F0C0F9236800
:1047F800614A934237D1614C614800250095236B8B
:1048080043F002032363236B03F0020300934FF486
:104818004072009B1223CDE9072301210323CDE930
:104828000913042307A90B93FCF7EEFC0195236CED
:1048380043F400132364236C03F400132A46294627
:1048480001931F20019BFCF737FC1F20FCF766FC37
:1048580020202A462946FCF72FFC2020FCF75EFC86
:104868000DB0BDE8F083474A93423FD1434C4448DA
:1048780000250295236B43F002032363236B03F0A7
:1048880002030293029B4FF012084FF48063CDE9B4
:10489800073801270423032607A90B93CDE90976D6
:1048A800FCF7B2FC0823CDE907383548092307A9E6
:1048B8000B93CDE90976FCF7A7FC0395236C43F429
:1048C80080032364236C03F480032A462946039358
:1048D8002120039BFCF7F0FB2120FCF71FFC222082
:1048E8002A462946FCF7E8FB2220B7E7264A9342E6
:1048F800B6D1224C254800250495236B43F00403C8
:104908002363236B03F004030493049B0595236B33
:1049180043F001032363236B03F001030593059B15
:104928004FF012094FF400734FF0010803270426D3
:1049380007A9CDE90739CDE909870B96FCF764FC8F
:104948004FF4807312480B9607A9CDE90739CDE9D2
:104958000987FCF759FC0695236C43F4000323648C
:10496800236C03F40003069348202A462946069B35
:10497800FCF7A2FB482071E70054004000380240D1
:104988000004024000580040005C0040000802405B
:104998000000024007B50E4B02689A4216D1002269
:1049A80003F574430192596C41F4003159645B6C0E
:1049B80003F40033019311461920019BFCF77CFB9B
:1049C800192003B05DF804EBFCF7A8BB03B000BDE9
:1049D8000044014010B5044688B01422002103A801
:1049E80000F0C5F82268184B9A422AD103F5FA3329
:1049F800002401941A6C154842F400321A641A6CA7
:104A080002F400320192019A02941A6B42F00102F8
:104A18001A631B6B03F0010302930C22029B02230F
:104A2800CDE9032303210723CDE9061303A9FCF7E6
:104A3800EBFB262022462146FCF73EFB2620FCF70E
:104A48006DFB08B010BD00BF0044004000000240EC
:104A58007047FEE7FEE7FEE7FEE7704770477047DE
:104A680008B5FFF797FCBDE80840FCF7BBB80000A5
:104A78000148FCF7E2B900BF487300200148FEF77F
:104A880083BA00BFF87100200148FDF74FBA00BF94
:104A9800F47200200148FDF79BBE00BFF4720020AD
:104AA8000148FDF743BA00BFA07200200148FDF796
:104AB8008FBE00BFA07200200148FEF71DBD00BFD9
:104AC800B07100200148FDF731BA00BF4C720020D8
:104AD8000F49D1F8883043F47003C1F888300D4B82
:104AE8001A68002042F001021A6098601A6822F0E1
:104AF800847222F480321A60074A5A601A6822F4D3
:104B080080221A60D8604FF000638B60704700BF46
:104B180000ED00E00038024010300024DFF834D007
:104B2800002103E00C4B5B58435004310B480C4BFD
:104B380042189A42F6D30B4A02E0002342F8043B9B
:104B4800094B9A42F9D3FFF7C3FF00F019F8FFF7B2
:104B580073FC704700000220104C00080000002081
:104B6800B8010020B801002090730020FEE702443D
:104B78000346934200D1704703F8011BF9E7000090
:104B880070B50D4B0D4D5B1B9C100026A64209D13C
:104B980000F01AF80A4D0B4B5B1B9C100026A6422E
:104BA80005D170BD55F8043B98470136EEE755F836
:104BB800043B98470136F2E7084C0008084C000807
:104BC800084C00080C4C0008F8B500BFF8BC08BC3D
:104BD8009E467047F8B500BFF8BC08BC9E467047B3
:104BE80000000000010203040000000000000000B3
:084BF80001020304060708098D
:084C000074BCFF7F01000000FD
:044C0800BD010008E2
:044C0C009901000802
:104C1000010000001000000001010000320000004F
:104C20001400000064000000010101010100000007
:104C300064000000F38E333FD1AE3A3FBBF2413FF8
:104C4000085A493FC1E2503F978B583F3B53603F62
:104C50005C38683F0D37703FA54E783F963E803FE9
:104C6000AA60843F3F8C883FB6BE8C3FB1F9903F2D
:104C7000EF38953F677E993F2AC69D3FE010A23FDF
:104C8000E65CA63F3FA9AA3F49F4AE3F083DB33FCB
:104C90008082B73FB1C4BB3F0000C03F6536C43F10
:104CA0009D63C83FA089CC3F76A6D03F28B8D43FAB
:104CB000ADC0D83F6FBBDC3F04ADE03F8F8DE43F1C
:104CC0009D63E83FE92BEC3FD2E3EF3F508DF33F8C
:104CD0007025F73F6CB2FA3F6B2BFE3F2ECA0040A7
:104CE000F3760240B51A0440F2B505400248074089
:104CF000DDD208400D540A405BCE0B40323D0D40E2
:104D000027A50E4092051040FF5B114069A9124093
:104D100041F113401B2F1540456416403A9217404D
:104D20007CB818408CD6194018EC1A40C2FA1B40C7
:104D30000C021D40CD011E40FCFB1E40D0ED1F406B
:104D400040D920404DBE21404E9C22406D732340EF
:104D500078452440D00F2540E9D42540E6962640EA
:104D6000B15027409604284096B22840A75C2940BD
:104D7000F3022A40DBA22A40AB3E2B40C3D32B4098
:104D800038672C40CBF32C40C87B2D40F7012E40D8
:104D900090832E4069002F404A7B2F4041F12F40E5
:104DA0004E62304039D13040103B314065A5314032
:104DB000A60A3240A96A3240FFCA32401826334060
:084DC000BB7E33400024F40027
:0400000508004B257F
:00000001FF
