S024000047727970686F6E2053797374656D20426F6F746C6F616465722046572E737265638C
S21440000048334020610240005D0240005D024000EF
S2144000105D0240005D0240005D02400000000000BE
S2144000200000000000000000000000005D024000EC
S2144000305D024000000000005D0240005D0240009E
S2144000405D0240005D0240005D0240005D024000EF
S2144000505D0240005D024000650D40005D024000CC
S2144000605D024000000000005D0240005D0240006E
S2144000705D024000E51040005D0240005D02400029
S2144000805D0240005D0240005D0240005D024000AF
S2144000905D0240005D0240005D0240005D0240009F
S2144000A05D0240005D0240005D0240005D0240008F
S2144000B05D0240005D0240005D0240005D0240007F
S2144000C05D0240005D0240005D0240005D0240006F
S2144000D05D0240005D0240005D0240005D0240005F
S2144000E05D0240005D0240005D0240005D0240004F
S2144000F05D0240005D0240005D0240005D0240003F
S2144001005D0240005D0240005D0240005D0240002E
S2144001105D024000000000000000000000000000FB
S2144001205D0240005D0240005D0240005D0240000E
S2144001305D0240005D0240005D0240005D024000FE
S2144001405D0240005D0240005D0240005D024000EE
S2144001505D0240005D0240005D0240005D024000DE
S2144001605D0240005D02400010B5054C237833B96F
S214400170044B13B10448AFF300800123237010BD35
S2144001805802402000000000403540000C4B43B170
S2144001900C480D4910B5AFF300800C48036823B9EE
S2144001A010BD0A48036833B97047094B002BF7D097
S2144001B0BDE810401847064B002BF5D0184700BF47
S2144001C000000000403540005C02402040354000C2
S2144001D00000000008B5014B984708BD8503400065
S2144001E0A0B10246B1B110B401444FF0FF300B4C01
S2144001F012F8013B4340DBB254F8233083EA102028
S2144002008A42F5D1C0435DF8044B70474FF0FF304B
S214400210C04370474FF0FF30FAE700BF74024020FB
S21440022030B40C4D2C1F05F57F7500200A4904E0BC
S21440023044F8043F0130AC420AD00346082213F08B
S214400240010F14BF81EA53035B08013AF7D1EFE789
S21440025030BC7047740240202083B8EDFEE70000B3
S21440026008B5174B174A9A4210D0174B144A9A4271
S2144002700CD2013B9B1A23F0030304331344114969
S21440028051F8040B42F8040B9A42F9D10F4B104A2E
S2144002909A420AD2013B9B1A23F0030304331344C9
S2144002A0002142F8041B9342FBD10A4A0A4B23F032
S2144002B07F039360094B9847094B9847FEE700BF7A
S2144002C0000040204035400058024020482D402045
S2144002D05802402000ED00E0000040003D15400080
S2144002E03912400008B502490248034B984708BDFA
S2144002F0000C0E40F82640206D044000044B9B69DD
S21440030013F4005F03D14FF40052014B1A6170475B
S21440031000060E400A4B1A6F22F001021A675A6F07
S21440032042F001025A6701225A601A6F22F0020216
S2144003301A675A6F42F002025A6702225A607047A2
S21440034000100E4010B582B0074B9847074B9847B1
S214400350074B984700901023064A07490748084C21
S214400360A04702B010BD00BFFD024000150340008C
S214400370E11040007406402000400240A82640207D
S214400380B507400008B5194B9847194B9B6913F4BD
S214400390806F03D14FF48062154B1A61154A53683B
S2144003A043F400435360144B02225A631A611A60A6
S2144003B04FF480725A631A611A604FF480325A635F
S2144003C01A611A604FF400325A631A611A604FF489
S2144003D080225A631A611A604FF400125A631A61F7
S2144003E01A60064B9847064B984708BD2D0A4000B2
S2144003F000060E4050180E40000E0E40E50240002B
S21440040045034000EFF31083036072B6BFF35F8F7F
S2144004107047BFF35F8F036883F31088704708B553
S214400420436903B1984708BD08B5836903B1984747
S21440043008BD000038B50C46054640F2171208497C
S214400440003018BF0120074B98472846064B984770
S21440045001382040002814BF6FF00D00002038BD42
S2144004608031400011094000CD0A400038B50446AE
S2144004700D46002818BF002914BF0120002038224E
S2144004800749084B984729462046074B9847034656
S21440049018B9064A2260064A6260184638BD00BF50
S2144004A08031400011094000810A40001F0440008E
S2144004B0290440002DE9F0410E4690461F46002A8A
S2144004C018BF002B14BF0123002305466A22184993
S2144004D000280CBF002003F00100164B9847284622
S2144004E0154B984704462846144B984700FB04F0A3
S2144004F0B04210D3BB19984211D331462846104B10
S214400500984780B93B464246314628460D4CA04760
S2144005100020BDE8F0816FF00D00BDE8F0816FF07F
S2144005200D00BDE8F0816FF01000BDE8F08100BF1F
S2144005308031400011094000CD0A4000D30A4000F7
S214400540390D4000110B40002DE9F8430E46044695
S2144005501746002818BF002A14BF012000209A2200
S2144005601249134B98472046124B9847054620465B
S214400570114B9847804631462046104B9847814657
S21440058058B947450CD8B6FBF5F53D44A8450AD3BF
S2144005903A46314620460A4B98474846BDE8F883D7
S2144005A06FF00C09F9E76FF00C09F6E78031400070
S2144005B011094000CD0A4000D30A400035044000EF
S2144005C0210C400010B50446F7220549003018BFFC
S2144005D00120044B98472046034B984710BD00BF68
S2144005E08031400011094000CD0A400070B51646E3
S2144005F004460D46002818BF002914BF01200020DD
S21440060034220449044B98472368324629462046FC
S214400610984770BD983140001109400070B51646A5
S21440062004460D46002818BF002914BF01200020AC
S2144006303D220449044B9847636832462946204683
S214400640984770BD983140001109400008B5002316
S2144006508362C3691BB1A0F108021046984708BDE3
S21440066008B500238362436A1BB1A0F10802104616
S214400670984708BD38B50446A0F108052C30034B12
S2144006809847236A0BB12846984738BDA5094000CD
S21440069070B50E461546002918BF002A14BF012320
S2144006A00023044640F23B120F4900280CBF0020AE
S2144006B003F001000D4B9847B4F84420B4F84C3092
S2144006C09A420DD1A664A4F84C500023A4F84430B6
S2144006D00123236304F10800054B9847284670BD64
S2144006E06FF01B0070BD00BFAC31400011094000E8
S2144006F01110400010B50446838FB0F844209A424B
S21440070009D0026C591C8187D15C044B984720461F
S214400710034B984710BD034B984710BDED0F400064
S21440072011104000351040002DE9F04383B090464C
S214400730141C18BF01240F4600290CBF002304F0E8
S214400740010381464FF4AC72144900280CBF0020C8
S21440075003F00100124B984701A8124B984709F145
S21440076034094846104B9847064601A80F4B984711
S2144007708EB184B100210C460D4D0134A4B23944EB
S2144007804846A8472146A04501D9A642F5D8204666
S21440079003B0BDE8F0830024F9E700BFAC31400069
S2144007A01109400005044000E509400013044000DC
S2144007B061094000F8B515461E4604460F46002817
S2144007C018BF002914BF0120002005D0002A18BFFA
S2144007D0002B14BF012000203A221149114B9847A4
S2144007E03246294604F134000F4B9847A0B93946A3
S2144007F004F108000D4B9847034658B90C4A62600E
S2144008000C4A22600C4AA2600C4AE2600C4A226102
S2144008100C4A62611846F8BD6FF00C03FAE700BF59
S214400820AC3140001109400019094000050F400056
S2144008302907400091064000F50640007506400036
S2144008404D0640006106400010B504466122064948
S214400850003018BF0120054B984704F10800044BB0
S2144008609847002010BD00BFAC3140001109400041
S214400870B90F400038B505460C46002818BF002979
S21440088014BF0120002077220249034B9847256079
S214400890002038BDAC3140001109400070B50C4610
S2144008A01646054683221749003018BF0120164BCE
S2144008B09847012C10D024B1022C18D06FF00C00B1
S2144008C070BDAE62321C18BF0122012105F108003E
S2144008D00E4B9847002070BD6E62321C18BF012236
S2144008E0022105F10800094B9847002070BDEE62D2
S2144008F0321C18BF0122032105F10800034B98471C
S214400900002070BDAC314000110940005D10400031
S21440091000B900BE7047000070B50E461546002967
S21440092018BF002A14BF01230023044628220A4980
S21440093000280CBF002003F00100084B98476B1EB0
S2144009401D4205D163600020A060E060266070BD57
S2144009506FF00C0070BD00BFCC3140001109400064
S21440096038B504460D46002818BF002914BF01209C
S2144009700020402209490A4B9847A368E2689A42F9
S21440098009D0626813402268D35C2B70A368013399
S214400990A360002038BD6FF0090038BDCC31400060
S2144009A01109400038B50D46044651220B49003027
S2144009B018BF01200A4B9847E368626813402268D4
S2144009C0D554E3686168A2689A1A8A4201D9591ACE
S2144009D0A1600133E360002038BD00BFCC31400049
S2144009E01109400010B5044667220549003018BF7B
S2144009F00120044B9847E068A368C01A10BD00BFAA
S214400A00CC314000110940000346064A126822B124
S214400A10044A10680344136070470349014A116052
S214400A20F6E700BF840640204833402000B583B038
S214400A3001A80E4B98470E4AD2F8883043F470030C
S214400A40C2F88830BFF34F8FBFF36F8F01A8094BB2
S214400A509847094A136823F4706343F4C0631360ED
S214400A60064B984703B05DF804FB00BF0504400002
S214400A7000ED00E013044000000C0E40810D4000E5
S214400A8038B504460D46002818BF002914BF01207B
S214400A9000206D2209490A4B98472561094B1C6086
S214400AA0094B4022C3F88020BFF34F8FBFF36F8FB0
S214400AB0C3F880211A60002038BD00BFF0314000E6
S214400AC0110940008806402000E100E04FF4007025
S214400AD070474FF48050704770B50C4616461D461A
S214400AE0C818AB220749B0F5001F2CBF00200120D4
S214400AF0054B98472A4604F580013046034B9847F5
S214400B0070BD00BFF031400011094000851540001F
S214400B102DE9F04F83B0009201EB030BBBF5804FFD
S214400B2034BF4FF4007A4FF4005A002B6AD0074681
S214400B30594567D28846354B0433019339E0ABEBD1
S214400B400305ADB2002D45D05346019A214638469E
S214400B50DFF8C890C847A946A8EB04002A46009983
S214400B60019B18442A4B9847BAF5007F05D0610A86
S214400B7041F002013869274B9847009B4B4400934D
S214400B80BAF5007F30D0B44210D2204B1D1D4FF036
S214400B900009DFF884802B46620A49463869C04718
S214400BA004F5007405F50075A642F4D8B046B34582
S214400BB028D9CAF1000404EA08040AEB04064445AE
S214400BC01AD21FFA88F3F51AADB2B345BAD2002D41
S214400BD0B5D113E05246009D294601980C4B9847E4
S214400BE02B4653440093CBE7019B4FEA5822012102
S214400BF03869094CA047D9E7B345EBD2ABEB0405BF
S214400C00ADB29FE703B0BDE8F08F00BF8806402036
S214400C10851540000100402021004020D90A4000B0
S214400C20002A7ED02DE9F04F83B083460C4602EB77
S214400C3051234FEA4328414570D23A4B043301933F
S214400C40DFF8F0902CE0A8EB050A1FFA8AFA41E09C
S214400C50019A29465846344EB047601B5246FF21FB
S214400C60019B1844314B98476C0A7E0AB4423CD2EA
S214400C70DBF81030009306E044F002010098C847C5
S214400C801034B44206D21F2CF6D821460098C847E6
S214400C900434F6E7BAF1000F27D13C46B8453DD9B3
S214400CA0B4F5804F34BF4FF400634FF400535D42B9
S214400CB025405F19A5422CD2A2B2A7EB020A1FFA22
S214400CC08AFAB84506D2BAF1000FBCD0A8EB020AA1
S214400CD01FFA8AFABAF1000FBAD1DBF81030009347
S214400CE06C0A7E0AA642CED8D7E7BD42D5D20D4B77
S214400CF01C1D4FF0000A0E4E23466A0A5146DBF88A
S214400D001000B04705F5007504F50074AF42F3D8FF
S214400D10C3E7B84597D34FF0000ADEE703B0BDE817
S214400D20F08F704788064020D90A40009B15400047
S214400D302100402001004020890B0369084A5A6080
S214400D400269936813F0010FFBD01F2900D9D368BE
S214400D50D06801F01F01C84000F00100704700BF96
S214400D600A00005A08B5054B186803699B6813F0DB
S214400D70010F02D0036803B1984708BD880640209B
S214400D801D490A6A22F002021C4B13430B620A46B4
S214400D90936E13F0010FFBD0174B196A184A0A439B
S214400DA01A62996A174A0A409A62174A9A621A461B
S214400DB0936E13F0020FFBD00F4A136B23F07003B1
S214400DC01363936E13F0080FFBD00B4A136B23F498
S214400DD0407343F480731363936E13F0080FFBD095
S214400DE0054A136B23F0030343F002031363936E29
S214400DF013F0080FFBD0704700060E40013E370048
S214400E0000003701FFFF00F8013F182010B50446E8
S214400E1040F22F220549003018BF0120044B984766
S214400E2004482044C0F3873010BD00BF1432400051
S214400E301109400000C0FDBF10B504464FF42D72A6
S214400E400849003018BF0120074B98472046074BFB
S214400E50984728B140F2BE2202490020024B9847EC
S214400E60002010BD14324000110940000D0E400015
S214400E7010B5044640F2CB221149003018BF01207D
S214400E80104B98472046104B9847104BC4F8E43018
S214400E90002363606362A362AC2222604FF48072D8
S214400EA022604FF40022226000EB4000084A02EB2A
S214400EB0800042686260074A2262184610BD00BF42
S214400EC01432400011094000390E4000004153558D
S214400ED0083240005100030010B50446AE220649D1
S214400EE0003018BF0120054B98472046044B9847D2
S214400EF00D30C0B210BD00BF143240001109400092
S214400F000D0E400070B50C460646D12223490030EF
S214400F1018BF0120224B98472046224B984705464B
S214400F2008B1284670BDB4611F4B9C4233D0204662
S214400F301E4B984743B2002B0DDB5B0900F01F00A9
S214400F40012202FA00F02033194A42F82300BFF388
S214400F504F8FBFF36F8F2046144B984743B2002BFA
S214400F6009DB5B0900F01F00012202FA00F0603343
S214400F700F4A42F8230020460C4B984743B2002BBA
S214400F80CFDB5B0900F01F00012202FA00F0084A9E
S214400F9042F82300C5E7074B1E60C8E714324000FE
S214400FA011094000710E400000400240D90E40003A
S214400FB000E100E08C26402070B50A4E044640F220
S214400FC013123146003018BF0120074DA847A469C8
S214400FD04FF43D723146201C18BF0120A8475023CD
S214400FE0236070BD143240001109400038B50C46ED
S214400FF0054640F2B5120449003018BF0120034BA5
S2144010009847AB69DC6138BD143240001109400096
S21440101010B5044640F21D220449003018BF012096
S214401020034B9847A36902229A6010BD14324000D1
S2144010301109400010B5044640F22622054900300A
S21440104018BF0120044B9847A3694FF400729A607A
S21440105010BD00BF143240001109400070B50C4668
S214401060164605464FF414721A49003018BF012040
S214401070194B9847BEB114F0FD0F04D0012C0AD08E
S214401080032C0CD070BDAB6902229A60AB694FF45A
S21440109000729A6070BDAB6901229A6070BDAB6900
S2144010A00E4A9A6070BD14F0FD0F07D0012C0DD08B
S2144010B0032CE7D1AB69094ADA60E3E7AB69022261
S2144010C0DA60AB694FF40072DA6070BDAB6901223A
S2144010D0DA6070BD1432400011094000E0000001A3
S2144010E00020704710B5254B1C6840F289222449E1
S2144010F0201C18BF0120234B9847A3695A6912F059
S214401100020F03D01A6912F0020F18D15A6912F46E
S214401110007F03D01A6912F4007F16D15A6912F084
S214401120010F1FD01A6912F0010F1BD05969164AD9
S214401130114211D09A694FF480721A6010BD022293
S214401140DA6023682046984710BD4FF40072DA6094
S214401150A3682046984710BD99696368C9B220467F
S214401160984710BD5969084A114200D110BD4FF446
S21440117080721A60E36820469847F7E78C2640203E
S2144011801432400011094000E00000010022014BEB
S2144011901A7070479026402000B583B002A90023FD
S2144011A001F8013D0122184B1868184B9847184B18
S2144011B05B7833B9164B5B6833B99DF807302A2BFA
S2144011C01AD003B05DF804FB114B5A68511C5960A5
S2144011D09DF807300F498B540A2B09D00C4B5A68A0
S2144011E040F20A439A42ECD90022094B5A60E8E79B
S2144011F00122074B5A70E4E7054A5368591C516070
S2144012002A21044AD154E9E7142940201D0640000B
S214401210902640203029402008B5054B9868C0EB02
S214401220C00100F5804009020002024B984708BD05
S21440123090264020E10140002DE9F04F83B09F4BBF
S21440124098479F4B98479F489F4B98479F4CA06016
S214401250002363609E4B9847A368C3EB03131B01B0
S21440126003F580031B6883421BD1B0F1FF3F18D0C3
S214401270BFF34F8FBFF36F8FA3681A02954B13448B
S214401280954A9360BFF34F8FBFF36F8F62B6A368E4
S21440129003F580431B021A6882F308885B68984708
S2144012A0FEE78E4C8E4A002120468E4DA8478E4A39
S2144012B001212046A8478D4920468D4B9847204619
S2144012C08C4B9847814D8C4B03F1010A49E06B6883
S2144012D0013B062B35D98948062104E001316B686D
S2144012E0013B99420CD210F8013FA3F13002D2B232
S2144012F0092AF3D9413BDBB2052BEFD9002361E045
S21440130003235FE06B68013B062B1ED97B48062112
S21440131004E001316B68013B99420CD210F8013F62
S214401320A3F13002D2B2092AF3D9413BDBB2052BF6
S214401330EFD9002346E0042344E0012342E00223A1
S21440134040E003233EE000233CE004233AE00F2243
S2144013506B4B1969654B18686A4B984700236B605E
S2144013606B706B78002BFCD06748DAF8003003606F
S2144013709AF804300371624B1968644B984710B969
S2144013806B68072BD9D05E4B59685F485F4B9847D0
S21440139010B96B68072BD2D0594B99685A485B4BAB
S2144013A0984720B96A6840F20B439A428FD0544B14
S2144013B0D9685548554B98470028C4D16B680F2BC1
S2144013C0A0D000232B732B7BDBB22A78002AC5D112
S2144013D0013B032BC2D801A252F823F04F13400022
S2144013E0ED1340000F14400077144000A968C1EB8D
S2144013F001114FF4E06209013248454B98470F22ED
S2144014003F4B5969394B18683E4B9847A6E73A4BCD
S214401410D3F806303F480360102200213E4B9847E1
S2144014208346A96899B1DFF810813C4F00243C4EB2
S214401430DFF8E49038F8023B338010220021304633
S214401440C84707F8010F0134A9688C42F2D3BBF5B0
S214401450E06F83DA0BF5807B0B46324A01FB0BF1DB
S2144014601848314CA0470F22254B99691F4B1868E6
S214401470244B984772E72D482D4B1A685B680260EC
S2144014804360102200212B4B98470190104B984701
S214401490019B98427FF462AFA968C1EB0111042317
S2144014A00DEB0302994007481F4CA0470F22144BF0
S2144014B0D9690E4B1868134B98474FE7D501400043
S2144014C021024000F8264020C505400090264020D6
S2144014D01912400080FF3F0000ED00E0A8264020A3
S2144014E0991140009D0840008D114000142940206D
S2144014F075084000490840003029402035294020E2
S21440150068004020ED05400018294020051C40009A
S214401510490540003C2D4020291D4000132740200F
S2144015202C29402014274020B50440002029402084
S21440153036294020511E40003A29402070B50D4EB5
S2144015400D4CA41BA4100025A54209D10B4E0C4CF3
S21440155001F0E6FFA41BA4100025A54205D170BDEE
S21440156056F8253098470135EEE756F82530984727
S2144015700135F2E72C3540002C3540002C35400034
S2144015803035400010B5431E0A44914200D110BD8C
S21440159011F8014B03F8014FF7E702440346934224
S2144015A000D1704703F8011BF9E7F0B52DED028B2B
S2144015B0B0EE408B85B017460D9D0C9E18EE902AD7
S2144015C025F02005002AB6BF2D220022B1EE408B22
S2144015D0462D0C461A7004D0452D00D10134022108
S2144015E000E0032103AB019302AB0093224633464F
S2144015F0B0EE480B00F0D0FC472D01D1FB0716D5C6
S214401600462D00EB04030CD10278302A07D1B5EE04
S214401610408BF1EE10FA1CBFC4F10104346032680E
S2144016201344B5EE408BF1EE10FA0FD10393039BB3
S2144016300E9A1B1A136005B0BDEC028BF0BD541C0D
S21440164003941170039A9342F9D8F0E73021F9E7F2
S214401650F7B503460029B8BF494203F8022BB4BF8A
S2144016602D222B220929427020DD0DF10702174654
S2144016700A2691FBF6F506FB15113031092D02F8C6
S214401680011C02F1FF34294609DC3031023A04F8E5
S214401690011CBA421C4604D3201A03B0F0BD2246B1
S2144016A0E7E712F8011B03F8011BF2E730221C465D
S2144016B0114404F8022B5970EEE7000000000000C9
S2144016C02DE9F04F8DB00C4616461F46DDF8588083
S2144016D0054601F0D1F9D0F800B0584600F09CFA23
S2144016E000230A93D8F800300590073323F0070309
S2144016F003F1080194F818902268C8F80010D3E95E
S2144017000001C4E912019FEDA07B94ED120BB0EEF0
S214401710C06BB4EE476BF1EE10FA40F3EF81B5EED6
S214401720C00BF1EE10FA02D52D2384F84330984BC7
S2144017309849B9F1470F8CBF8846984622F0040274
S2144017400323236122604FF0000A009733460BAA1A
S2144017502146284600F0E0F9013040F090804FF0F6
S214401760FF300DB0BDE8F08F61684B1C42F48062DC
S2144017700AA80DF1240E3CD1062363600023039390
S21440178002900DF123032260CDF80490CDF800E0DE
S21440179061682846FFF709FF09F0DF03472B8046BC
S2144017A009D1099BD81C02DB6268934254DDA9F13B
S2144017B002095FFA89F9B9F1650F099931D80139FB
S2144017C04A4604F150000991FFF742FF0A9A8318EF
S2144017D0012A8246236102DC2268D10701D5013303
S2144017E023619DF82330002BAFD02D2384F843305F
S2144017F0ABE7B9F1670F02D0B9F1470FBED171B16F
S2144018000023039302902260CDF80490CDF800E0C8
S2144018100DF123032846FFF7C8FE8046C1E70123A3
S214401820ABE7B9F1660F19D1002963680CDD216179
S21440183013B92268D20702D501330B442361099BB2
S214401840A3654FF0000ACCE713B92268D00701D54C
S2144018500233F3E70123F1E74FF06709099B0A9A41
S214401860934205DB22682361D107E8D50133E5E7DB
S214401870002BD4BFC3F1020301231344DEE72368E1
S2144018805A0507D42369424631462846B8470130B0
S2144018902AD164E7B9F1650F40F2E58094ED127BFA
S2144018A0B5EE407BF1EE10FA3CD101233A4A314680
S2144018B02846B84701303FF452AF0A9B099A9A42ED
S2144018C002DB2368D8070FD5059B5A463146284683
S2144018D0B84701303FF443AF4FF0000804F11A090F
S2144018E00A9B013B984512DB23689B0709D54FF0BE
S2144018F0000804F11909E3680B9A9B1A9845C0F250
S214401900F280E0680B9B9842B8BF184629E701234F
S2144019104A4631462846B84701303FF420AF08F1E2
S2144019200108DDE7099B002B38DC01231A4A3146C3
S2144019302846B84701303FF412AF099B23B90A9BAB
S21440194013B92368D907CFD5059B5A463146284652
S214401950B84701303FF403AF4FF0000904F11A0ACC
S214401960099B5B42994501DB0A9B8CE70123524663
S21440197031462846B84701303FF4F1AE09F1010937
S214401980EEE700BFAFF30080FFFFFFFFFFFFEF7FF4
S2144019909032400094324000A03240000A9AA36D34
S2144019A09A42A8BF1A46002A914638DC04F11A0328
S2144019B04FF0000A29EAE9790793A36D0693A3EB53
S2144019C009039A4533DB0A9B099A9A423ADB236815
S2144019D0DA0737D40A9B069A09999A1AA3EB0109A3
S2144019E09145A8BF9146B9F1000F33DC4FF000088F
S2144019F029EAE97904F11A0A099A0A9B9B1AA3EB89
S214401A0009039845BFF670AF012352463146284633
S214401A10B84701303FF4A3AE08F10108ECE713469F
S214401A20314642462846B8470130BFD197E60123A3
S214401A30079A31462846B84701303FF490AE0AF13F
S214401A40010ABAE7059B5A4631462846B847013050
S214401A50C0D184E6069A4B46424431462846B847AB
S214401A600130C3D17BE60A9A012A01DCDB0737D571
S214401A700123424631462846B84701303FF46FAE10
S214401A80059B5A4631462846B84701303FF467AE74
S214401A9094ED127BB5EE407BF1EE10FA0BD14FF091
S214401AA0000804F11A090A9B013B98450DDB534692
S214401AB004F15002E8E60A9B08F10102013B314678
S214401AC02846B8470130F2D149E601234A46314616
S214401AD02846B84701303FF442AE08F10108E2E735
S214401AE001234246EBE701234A4631462846B8479B
S214401AF001303FF434AE08F10108FCE6B4EE400B8A
S214401B00F1EE10FAFFF530AE014B024911E600BF88
S214401B10983240009C3240002DE9F04791461F46DF
S214401B208A680B69DDF820809342B8BF1346C9F82F
S214401B30003091F8432006460C4612B10133C9F8EE
S214401B4000302368990642BFD9F800300233C9F8FE
S214401B500030256815F0060507D104F1190AE36838
S214401B60D9F800209B1A9D4229DB94F8433022681E
S214401B70003318BF012392062ED404F1430239469F
S214401B803046C047013021D02368E568D9F80020A8
S214401B9003F00603042B08BFAD1AA36822690CBFE6
S214401BA025EAE57500259342C4BF9B1AED184FF011
S214401BB000091A344D451BD10020BDE8F0870123AB
S214401BC0524639463046C047013003D14FF0FF30C9
S214401BD0BDE8F0870135C2E7E1185A1C302081F88D
S214401BE04300224494F8451082F843100233C4E779
S214401BF00123224639463046C0470130E6D009F137
S214401C000109D7E710F8012B11F8013B012A28BF3C
S214401C109A42F7D0D01A7047034613F8012B002A91
S214401C20FBD1181A013870472DE9F84F804689468F
S214401C3092461F468B465D460A9815F8014B00F0C3
S214401C4017FF2044467816F008060BD12D2C0BD1F2
S214401C502C7801260BF1020567B1102F14D1302CD9
S214401C600AD011E0AB46E6E72B2C04BF2C780BF1EC
S214401C700205F1E7302C27D12B7803F0DF03582BF1
S214401C804BD16C7810270235002E0CBF6FF0004108
S214401C904FF000410022B1FBF7FE104607FB1E1C2A
S214401CA0A4F13003092B11D81C46A7421DDD531C56
S214401CB007D0864516D301D1A44513DB00FB074069
S214401CC0012215F8014BEBE70A27DDE7A4F14103B3
S214401CD0192B01D8373CE8E7A4F16103192B04D847
S214401CE0573CE2E74FF0FF32EBE7531C08D1222384
S214401CF0C8F800300846BAF1000F07D1BDE8F88FA3
S214401D0006B14042BAF1000F0CD022B1013DCAF8EC
S214401D100050BDE8F88F4D46F9E73024002FB3D188
S214401D200827B1E7BDE8F88F084B37B51C68084D63
S214401D30236A002B08BF2B46009313460A460146EB
S214401D402046FFF771FF03B030BD00BF880040203B
S214401D50EC0040202DE9F0478046894692461E46D4
S214401D600F463D46089815F8014B00F081FE20448A
S214401D70437813F008030AD12D2C0AD12C7801237E
S214401D80BD1C5EB1102E13D1302C09D010E02F466A
S214401D90E7E72B2C04BF2C78BD1CF2E7302C25D16E
S214401DA02A7802F0DF02582A4AD16C78102602358B
S214401DB04FF0FF310027B1FBF6F106FB01FE6FEA5C
S214401DC00E0E3846A4F13002092A11D81446A6420F
S214401DD01DDD002F18DB814216D301D1A64513DB4B
S214401DE000FB0640012715F8014BEBE70A26DFE724
S214401DF0A4F14102192A01D8373CE8E7A4F1610270
S214401E00192A04D8573CE2E74FF0FF37EBE7002F9C
S214401E1009DA2223C8F800304FF0FF30BAF1000F3D
S214401E2007D1BDE8F08703B14042BAF1000F0CD0AD
S214401E3027B1013DCAF80050BDE8F0874D46F9E7A6
S214401E403024002EB4D10826B2E7BDE8F087000063
S214401E50084B37B51C68084D236A002B08BF2B4635
S214401E60009313460A4601462046FFF773FF03B029
S214401E7030BD00BF88004020EC0040202DE9F74FE1
S214401E8003690C699C42804600F38280013C01F164
S214401E9014074FEA840E00F1140657F8245056F8FB
S214401EA0240006EB0E03013507EB0E090193B0FB49
S214401EB0F5F595B34FF0000A3846B446D34650F889
S214401EC0042B93B205FB03A34FEA134A9BB2ABEB3A
S214401ED00303120CBCF800B005FB02A213FA8BF306
S214401EE04FEA124A1FFA82FBDCF80020CBEB124284
S214401EF002EB23429BB243EA024381454FEA224B20
S214401F004CF8043BDBD256F80E3033B9019B043B09
S214401F109E421A4630D3C8F81040404600F0DDFFD7
S214401F20002825DB013530464FF0000E57F8042BCD
S214401F30D0F800C093B2AEEB0303120C13FA8CF346
S214401F40C2EB1C4202EB23429BB243EA0243B94532
S214401F504FEA224E40F8043BE8D256F8242006EBDF
S214401F6084032AB9043B9E421A460BD3C8F8104055
S214401F70284603B0BDE8F08F1268043B002ACAD159
S214401F80013CC5E71268043B002AEFD1013CEAE772
S214401F900020EEE7000000002DE9F04F57EC106BF4
S214401FA095B0CDE90067466A079105460B921093B7
S214401FB01E9C3EB9102000F06DFD6862466086604B
S214401FC00660C6606B6A196851B15A684A60012358
S214401FD093408B60284600F0ABFD6B6A00221A6087
S214401FE0019B002BBFBF01232360019B23F00043CE
S214401FF0B2BF019300232360019C734BA34318D1C7
S214402000109A42F20F731360009B23B9C4F3130473
S214402010002C00F018851F9B3BB96C4B1DE06C4BA9
S214402020049308331F9A1360A6E2684B0493033365
S214402030F8E79DED007BB5EE407BF1EE10FA8DEDB6
S214402040047B0CD1109A012313601F9B002B00F0D9
S214402050F784604B1F9A1360013B04938CE213A9EC
S21440206012AA9DED040B284600F0AFFFC4F30A51B8
S21440207003901298002946D0DDE90423C3F31304E5
S21440208044F07F53A1F2FF3A43F44013002107EE99
S21440209090AA43EC162BB8EEE75B9FED454BB7EEA8
S2144020A0087B36EE477B9FED446BA7EE046BB0EEA5
S2144020B0467B9FED436BA5EE067BFDEEC76BB5EE0C
S2144020C0C07BF1EE10FA119116EE90BA08D5B8EE34
S2144020D0E66BB4EE467BF1EE10FA18BF0BF1FF3B11
S2144020E0BBF1160F31D83C4B03EBCB0393ED007B93
S2144020F09DED006BB4EEC67BF1EE10FA01DD0BF100
S214402100FF3B002322E01399014401F23243202B87
S21440211015DD009E01F21242C3F1400326FA02F298
S21440212004FA03F31A4307EE902AB8EE677B01F1F0
S214402130FF3A53EC172B0121A3F1F873A7E7C3F13D
S2144021402002009B03FA02F2EDE70123A0EB0A0A05
S214402150BAF1010746BFCAF1010A00274FF0000A4C
S214402160BBF1000F0D93BCBF00230C93079BA3BF8E
S214402170CDF830B05F444FF00008AAEB0B0AB8BF6A
S214402180CBF10008092B00F2F880052BC4BF043BB6
S2144021900793079BA3F10203CCBF00240124032B23
S2144021A000F2F780DFE813F0E500E7001A00D900F8
S2144021B061436F63A787D23FB3C8608B288AC63F08
S2144021C0FB799F501344D33F0000F07FAB32400072
S2144021D0A2324000A13240004833400001230A9317
S2144021E00B9B002B40F3D880069399466E6A0022DC
S2144021F07260042101F114029A4240F2D280716862
S214402200284600F061FC6B6A30601B680493B9F1A5
S2144022100E0F75D8002C73D09DED007BBBF1000FE0
S2144022208DED0E7B40F3CE80B54A0BF00F0302EBEC
S214402230C3034FEA2B1293ED007BD30640F1B680E2
S214402240B04B9DED0E4B93ED086B84EE065B8DED2B
S214402250005B02F00F020323AA49002A40F0A88040
S2144022609DED005B85EE076B8DED006B0D9A002AA9
S21440227000F0DA80B7EE006B9DED007BB4EEC67BD7
S214402280F1EE10FA40F1D080B9F1000F00F0CC80AA
S214402290069A002A30DDB2EE046B27EE067B8DED03
S2144022A0007B069C0BF1FF3201339DED006BB1EED7
S2144022B00C5B07EE903AB8EEE77BA7EE065B8DED3B
S2144022C0005B019BA3F150730193002C40F0AF805C
S2144022D0B1EE047B36EE476B9DED007BB4EEC76BEC
S2144022E0F1EE10FA00F30083B1EE477BB4EEC76B15
S2144022F0F1EE10FA00F1F682DDE90E34CDE9003455
S214402300139B002BC0F25881BBF10E0F00F3548193
S2144023107B4B03EBCB0393ED006B0B9B002B80F2C8
S214402320F380B9F1000F00F3EF8040F0DA82B1EEAF
S214402330047B26EE076B9DED007BB4EEC76BF1EE9B
S21440234010FA4C464E4680F2AC82049B04993122E9
S21440235001330A700BF1010BA7E201230A930B9B92
S2144023605B4403F1010906934B46012BB8BF01239A
S2144023703CE7002333E70023F0E7012400230793DC
S2144023800A944FF0FF3306939946002212230B928D
S2144023902CE701230A93F4E70123069399461A464D
S2144023A0F5E7726801327260490023E7022353E77B
S2144023B0D60704D591ED006B013327EE067B52100D
S2144023C008314AE72ED0CBF100024D4B02F00F0108
S2144023D003EBC10393ED007B9DED0E6B26EE077B72
S2144023E08DED087BDDE908344649CDE9003412110D
S2144023F0002002233AB900283FF438AFDDE908123E
S214402400CDE9001232E7D40709D59DED086B91ED72
S214402410007B26EE077B8DED087B013301205210B2
S2144024200831E7E7022321E75A464C463DE7049841
S214402430334B611E04440A9803EBC10393ED005BE3
S21440244058B3B6EE004B84EE057B9DED005BB7EED1
S214402450002BB2EE043B049B37EE457BFDEEC64BAD
S21440246014EE901AB8EEE45B303136EE456BB4EEBF
S214402470C76BF1EE10FA03F8011B39D432EE465B17
S214402480B4EEC75BF1EE10FA7BD4A3423FF434AF10
S21440249027EE037B26EE036BE0E79DED007BB2EE76
S2144024A0043B049B25EE075BFDEEC64B14EE901AEC
S2144024B0303103F8011B9C42B8EEE47B36EE476BA6
S2144024C01AD1B6EE007B35EE074BB4EEC46BF1EE98
S2144024D010FA56DC37EE455BB4EEC56BF1EE10FAFB
S2144024E07FF50AAF13F8011C302903F1FF3001D005
S2144024F0934631E00346F5E726EE036BD4E700BF8C
S21440250048334000203340009DED007BB1EE463B13
S214402510B2EE044B049B87EE065BBDEEC55B15EE44
S214402520102A303203F8012B049A9A1A9145B8EED5
S214402530C52BA3EE027B37D137EE077BB4EEC76BD5
S214402540F1EE10FA1CD4B4EE476BF1EE10FA03D15C
S21440255015EE102AD20713D403990093284600F0AC
S214402560E7FA009B109900221A700BF101020A60EC
S2144025701F9A002A7FF457AD049815B0BDE8F08F37
S2144025805A4613F8010C392803F1FF3106D1049856
S214402590884207D130210170013201460878013067
S2144025A00870A5E70B46ECE727EE047BB5EE407BCC
S2144025B0F1EE10FAAFD1CFE70A9A002A00F029814F
S2144025C0079A012A00F30B81119A002A00F0038132
S2144025D003F233434446CDF820A0012128469A44CE
S2144025E01F4400F045FB0646089B002B0ADD002FE3
S2144025F008DDBB42089AA8BF3B46D21AAAEB030A9C
S2144026000892FF1AB8F1000F1FD00A9B002B00F06B
S2144026100581002C11DD31462246284600F0BEFBDF
S214402620039A01460646284600F02BFB03990E9077
S214402630284600F07DFA0E9B0393B8EB040204D0C4
S2144026400399284600F0AAFB03900121284600F093
S2144026500FFB0C9B002B044640F3E2801A460146D3
S214402660284600F09BFB079B012B044640F3DB808B
S2144026704FF00008236904EB8303186900F0AAFAB8
S214402680C0F12000384410F01F0000F0F180C0F187
S2144026902003042B40F3E380089BC0F11C00034456
S2144026A0824408930744BAF1000F05DD5246039969
S2144026B0284600F0C1FB0390002F05DD21463A4630
S2144026C0284600F0B9FB04460D9B002B00F0D28054
S2144026D02146039800F001FC002880F2CB800023BE
S2144026E00A220399284600F03AFA0A9B03900BF117
S2144026F0FF3B002B00F0AE81002331460A222846DD
S21440270000F02DFA069B002B064603DC079B022BA7
S21440271000F3B880089B002B05DD31461A46284654
S21440272000F08AFB0646B8F1000F00F0158171688C
S214402730284600F0C9F9326902320746920006F18F
S2144027400C010C30FEF71EFF01223946284600F0E9
S21440275073FB009B049F03F00103B14608930646B3
S21440276021460398FFF78AFB4946824600F1300827
S214402770039800F0B2FB324600902146284600F00F
S214402780C6FBC3680246002B40F0E88001460A902C
S214402790039800F0A2FB0A9A0346114628460A937D
S2144027A000F0C6F90A9B002B40F0DA80079A002A10
S2144027B040F0D680089A002A40F0D280B8F1390F0F
S2144027C000F0EE80009B002B01DD0AF131087B1CF7
S2144027D087F800806BE0129BC3F13603FAE609F1F6
S2144027E0FF34A045BFBF0C9BA4EB080843440C93A2
S2144027F0B6BFA046A8EB04040024B9F1000FBBBF47
S214402800AAEB09030893CDF820A00023A8BF4B46A7
S214402810E3E64446CDF820A00A9EE5E642460FE7AA
S214402820079B012B16DC009BA3B9019BC3F3130344
S21440283083B9019B23F000431B0D1B056BB10AF1C6
S214402840010A01374FF001080C9B002B7FF412AFB2
S214402850012017E74FF00008F6E79846F4E73FF404
S21440286022AF089A1C331A449A4408921F441AE727
S2144028700346F6E7B9F1000F39DC079B022B36DD3D
S214402880CDF81890069B63B921460522284600F0ED
S21440289066F901460446039800F01FFB00283FF700
S2144028A054AD0B9B6FEA030B049B4FF00009214687
S2144028B02846009300F03CF9009B002E3FF44CAEB7
S2144028C0B9F1000F06D0B14504D04946284600F07D
S2144028D02FF9009B00933146284600F029F9009BCB
S2144028E03AE600242646DCE7934626462DE50A9B34
S2144028F0CDF81890002B7FF40DAF049F0398214627
S214402900FFF7BCFA00F1300807F8018B049B069AE3
S214402910FB1A9A4200F38180049B012AACBF9B18A5
S21440292001331F464FF0000901220399284600F064
S21440293083FA2146039000F0D0FA002833DC02D117
S21440294018F0010F2FD13B4613F8012C302A03F123
S214402950FF31ACD10B46F7E73046FAE601231CE7D9
S214402960009A002A04DB27D1079A2ABB089A1ABB8A
S214402970002B7FF72CAF01220399284600F05CFA23
S2144029802146039000F0A9FA002805DC7FF41FAF2B
S21440299018F0010F3FF41BAFB8F1390F7FF415AFB5
S2144029A039233B7001373B4613F8012C392A03F193
S2144029B0FF313AD001323FE0002B07F1010305DD3D
S2144029C0B8F1390FECD008F1010801E71F4603F8CB
S2144029D0018C049B069AFB1A9342A5D000230A2238
S2144029E00399284600F0BBF8B14503904FF000032A
S2144029F04FF00A024946284604D100F0B0F8814616
S214402A000646ADE600F0ABF83146814600230A2282
S214402A10284600F0A4F80646A2E600230A220399B8
S214402A20284600F09CF8039068E7049A8A4205D14D
S214402A3004990BF1010B31220A7038E70B46B3E7D5
S214402A40094BFFF70ABB1F9B002B7FF4E8AA074BF6
S214402A50FFF703BB069B002B3FF74FAF079B022BAE
S214402A607FF74BAF0EE700BFA0324000A2324000D7
S214402A70D0F8EC0070470000044B1B68186A044B03
S214402A80002808BF1846F030704700BF8800402036
S214402A90EC004020024B0146186800F0F3BA00BF35
S214402AA08800402082B001B901A942B14BB11378E9
S214402AB00B601278101C18BF012002B070471046F9
S214402AC0FBE76FF00100F8E770B5456A04460E462E
S214402AD03DB91020FFF7DEFF606245608560056007
S214402AE0C560656AEB6883B1636ADB6853F82600A5
S214402AF0B8B9012101FA06F56A1D9200204600F099
S214402B00B3FA60B1466085600EE02122042120467B
S214402B1000F0AAFA636AE860DB68002BE4D1002084
S214402B2070BD026843F8262000230361C36070BD71
S214402B3070B5446A06460D463CB91020FFF7AAFF1A
S214402B407062446084600460C4603DB1736A6A68C1
S214402B50DB6853F82210296043F8225070BD2DE9F7
S214402B60F0410D691F4606460C4601F1140E00233F
S214402B70DEF8000081B202FB01710F0C000C02FB74
S214402B80007089B2013301EB00419D424FEA104785
S214402B904EF8041BECDCD7B1A3689D4212DB61689B
S214402BA030460131FFF790FF2269023204F10C01F2
S214402BB0804692000C30FEF7E5FC21463046FFF793
S214402BC0B7FF444604EB850301355F612561204627
S214402BD0BDE8F081020C12040346B2B9030410208B
S214402BE013F07F4F04BF1B02083013F0704F04BF32
S214402BF01B01043013F0404F04BF9B000230002BF3
S214402C0006DB5B0003D5013070470020E8E7202054
S214402C107047036813F0070201460BD0DA0723D447
S214402C20980749BF5B089B0801200B605CBF0B60A0
S214402C300220704798B2A8B91B0C102013F0FF0F63
S214402C4004BF1B0A08301A0704BF1B0904309A0742
S214402C5004BF9B080230DA0702D45B0806D0013076
S214402C600B6070471046E9E7002070472020704709
S214402C7010B50C460121FFF727FF0122446102618F
S214402C8010BD2DE9F74F14460A6923699A42B8BF2A
S214402C900B468946BCBFA1461C46D9F81070D4F8EE
S214402CA010A0D9F80830D9F8041007EB0A069E425F
S214402CB0C8BF0131FFF708FF00F1140505EB860891
S214402CC02B460022434516D304F1140209F11401A1
S214402CD002EB8A0301EB87070193019C944213465B
S214402CE00CD8002E03DD58F8043D002B54D0066166
S214402CF003B0BDE8F08F43F8042BE3E7B3F800A039
S214402D000432BAF1000F20D0AE4689464FF0000C90
S214402D1059F8044BBEF800B0A3B20AFB03B34FEA1F
S214402D20144BDEF8004063444FEA144C0AFB0BC4D5
S214402D3004EB13449BB243EA04434F454FEA144C1A
S214402D404EF8043BE4D8CEF800C032F8029CB9F105
S214402D50000F1FD02B68AE468C464FF0000ABCF8DA
S214402D600040BEF802B009FB04B4A2449BB243EA5A
S214402D700A434EF8043B5CF8043BBEF800401B0C8C
S214402D8009FB034303EB1A4367454FEA134AE6D869
S214402D90CEF800300435A0E7013EA2E72DE9F8431F
S214402DA0154612F0030206460F4607D0013A214C5C
S214402DB0002354F82220FFF7D2FE0746AD1035D048
S214402DC0746A3CB91020FFF765FE70624460846008
S214402DD00460C460D6F82480D8F808404CB940F265
S214402DE071213046FFF744FF0023C8F80800044628
S214402DF003604FF00008EB070AD5394622463046B6
S214402E00FFF73FFF394681463046FFF791FE4F4673
S214402E106D100BD0206838B9224621463046FFF761
S214402E2030FF2060C0F800800446E4E73846BDE83E
S214402E30F88300BF103440002DE9F0470C464FEAB7
S214402E40621A236949680AEB0309A36807461646CF
S214402E5009F10105AB4231DB3846FFF735FE00226B
S214402E60804600F11403114652452ADB20692AEABF
S214402E70EA7A04F1140116F01F0203EB8A0301EB11
S214402E80800E22D0C2F1200C00200E6896403043BF
S214402E9043F8040B51F8040B8E4520FA0CF0F4D896
S214402EA0186008B109F10205013D3846C8F81050CF
S214402EB02146FFF73DFE4046BDE8F08701315B0006
S214402EC0C8E743F822100132CEE7043B51F8042B02
S214402ED043F8042F8E45F9D8E6E703690A699B1A3A
S214402EE030B50CD19200143014318418114454F883
S214402EF0045D51F8042D954203D005D301231846AE
S214402F0030BDA042F3D3FAE74FF0FF33F7E72DE9A1
S214402F10F0470D460746114628461446FFF7DDFFA4
S214402F20061E08D131463846FFF7CEFD0123036121
S214402F304661BDE8F087A4BF23462C463846616804
S214402F40A6BF1D4600260126FFF7BEFD2B69C660BC
S214402F50266905F1140904F1140202EB860709EB11
S214402F60830800F114054FF0000C52F804AB59F8F2
S214402F70044B1CFA8AF1A3B2C91A230CC3EB1A43BA
S214402F8003EB214389B24FEA234CC84541EA034349
S214402F90964645F8043BE8D8BE4505D355F8043D6B
S214402FA08BB10661BDE8F0875EF8041B1CFA81F31E
S214402FB01A1402EB11429BB243EA02434FEA224CF8
S214402FC045F8043BE8E7013EE8E72DE9F7430E46BF
S214402FD0012159EC108B1546FFF776FDC9F30A54CC
S214402FE00746C9F3130334BB0193B8F1000F27D04B
S214402FF002A840F8088DFFF70CFE0099F0B1019A40
S214403000C0F1200302FA03F30B43C2407B610192F6
S214403010019BBB61002B14BF022101213961C4B161
S214403020A4F2334404443460C0F135002860384686
S21440303003B0BDE8F08343F48013D5E77961E7E752
S21440304001A8FFF7E6FD019B7B6101213961203035
S214403050E5E707EB8103A0F2324030601869FFF7DE
S214403060B9FDC0EB4110E1E738B502FB01F421465B
S21440307000F008F8054618B122460021FEF78DFA02
S214403080284638BD70B5CD1C25F0030508350C2DF7
S21440309038BF0C25002D064601DBA94203D90C2378
S2144030A03360002070BD00F068F8234A146821465B
S2144030B091B9224C23681BB9304600F041F8206095
S2144030C02946304600F03CF8431C26D10C2333609A
S2144030D0304600F053F8E4E70B685B1B1AD40B2B22
S2144030E00FD90B60CD50CC18304600F047F804F1AD
S2144030F00B00231D20F00700C31A1BD05A42E25093
S21440310070BD8C420DBF63684B686360136018BF28
S2144031100C46E9E70C464968CAE7C41C24F0030499
S214403120A04205D0211A304600F00AF80130CDD032
S2144031302560D9E770BD00BFA0264020A4264020C9
S21440314038B5064C0023054608462360FDF75CFC70
S214403150431C02D1236803B12B6038BD442D402068
S21440316049B1FF2A85BF8A2303600A704FF0FF30BB
S21440317098BF012070470846704770477047000068
S2144031802E2E2F68616C2F7372632F68616C5F669A
S2144031906C6173682E6300002E2E2F68616C2F734F
S2144031A072632F68616C5F696F2E63002E2E2F68E6
S2144031B0616C2F7372632F68616C5F757361727494
S2144031C05F6173796E632E63000000002E2E2F68B9
S2144031D0616C2F7574696C732F7372632F75746985
S2144031E06C735F72696E676275666665722E6300A1
S2144031F02E2E2F68706C2F6566632F68706C5F6527
S21440320066632E630000000000000000C008100047
S214403210510003002E2E2F68706C2F7573617274E8
S2144032202F68706C5F75736172742E6300000000C7
S2144032302E766572696679737563636573730A0083
S2144032402E7772697465636F6D706C6574650A007D
S2144032502E6572617365636F6D706C6574650A0088
S2144032602E626F6F746C6F6164657272756E0A0061
S214403270434845434B000000575249544500000020
S21440328045524153450000002D50494E470000002E
S214403290494E4600696E66004E414E006E616E00B5
S2144032A03000496E66696E697479004E614E000062
S2144032B000000000000000000000000000000000C9
S2144032C000000000000000000000000000000000B9
S2144032D000000000000000000000000000000000A9
S2144032E00000000000000000000000000000000099
S2144032F00000000000000000000000000000000089
S2144033000000000000000000000000000000000078
S2144033104300504F534958002E0000000000000064
S2144033200080E03779C34143176E05B5B5B893467C
S214403330F5F93FE9034F384D321D30F94877825A48
S2144033403CBF737FDD4F1575000000000000F03F66
S214403350000000000000244000000000000059402B
S2144033600000000000408F40000000000088C3407E
S21440337000000000006AF8400000000080842E41F3
S21440338000000000D01263410000000084D797413F
S2144033900000000065CDCD41000000205FA0024245
S2144033A0000000E876483742000000A2941A6D42BA
S2144033B0000040E59C30A2420000901EC4BCD642AD
S2144033C000003426F56B0C430080E03779C3414358
S2144033D000A0D8855734764300C84E676DC1AB43CE
S2144033E0003D9160E458E143408CB5781DAF1544EC
S2144033F050EFE2D6E41A4B4492D54D06CFF08044C7
S214403400F64AE1C7022DB544B49DD9794378EA44DB
S21440341005000000190000007D000000002020206C
S214403420202020202020282828282820202020202F
S21440343020202020202020202020202020881010FF
S214403440101010101010101010101010100404045B
S2144034500404040404040410101010101010414119
S2144034604141414101010101010101010101010107
S214403470010101010101010110101010101042421B
S21440348042424242020202020202020202020202D7
S2144034900202020202020202101010102000000077
S2144034A000000000000000000000000000000000D7
S2144034B000000000000000000000000000000000C7
S2144034C000000000000000000000000000000000B7
S2144034D000000000000000000000000000000000A7
S2144034E00000000000000000000000000000000097
S2144034F00000000000000000000000000000000087
S2144035000000000000000000000000000000000076
S2144035100000000000000000000000000000000066
S214403520F8B500BFF8BC08BC9E4670478D01400009
S214403530F8B500BFF8BC08BC9E467047690140001D
S214403540836813F0010FFBD0034B03EA0121034BC2
S2144035500B434360704700BF00FFFF000700005A60
S214403560F0B4876817F00107FBD01C1F02F5005522
S2144035706D02043D03F5FE7654F8043F45F8043FDB
S214403580B442F9D1BFF34F8FBFF35F8F002918BF06
S2144035900327044C04EA022444F0B4443C43446009
S2144035A0F0BC704700FFFF00883240008032400089
S2144035B07832400070324000603240005032400066
S2144035C040324000303240008C0040200000000076
S2144035D0D0324000F0324000B032400000000000E0
S2144035E00000000000000000000000000000000096
S2144035F00000000000000000000000000000000086
S2144036000000000000000000000000000000000075
S2144036100000000000000000000000000000000065
S2144036200000000000000000000000004300000012
S2144036300000000000000000000000000000000045
S21440364000000000000000000000000043000000F2
S2144036500000000000000000000000000000000025
S21440366000000000000000000000000043000000D2
S2144036700000000000000000000000000000000005
S21440368000000000000000000000000043000000B2
S21440369000000000000000000000000000000000E5
S2144036A00000000000000000000000004300000092
S2144036B000000000000000000000000000000000C5
S2144036C00000000000000000000000004300000072
S2144036D000000000000000000000000000000000A5
S2144036E00000000000000000000000004300000052
S2144036F00000000000000000000000000000000085
S21440370000000000000000000000000061314000A2
S214403710A52A4000000000001C344000183340003A
S2144037201933400019334000193340001933400024
S2144037301933400019334000193340001933400014
S21440374019334000FFFFFFFFFFFFFFFFFFFFFFFFB4
S214403750FFFF0000010041534349490000000000BC
S2144037600000000000000000000000000000000014
S214403770000000000000415343494900000000009B
S21440378000000000000000000000000000000000F4
S20C4037900000000000000000EC
S804400000BB
